{
  "address": "0x5FbDB2315678afecb367f032d93F642f64180aa3",
  "abi": [
    {
      "inputs": [
        {
          "internalType": "uint256",
          "name": "prescriptionId",
          "type": "uint256"
        },
        {
          "internalType": "uint256",
          "name": "medIndex",
          "type": "uint256"
        }
      ],
      "name": "AlreadyOrdered",
      "type": "error"
    },
    {
      "inputs": [
        {
          "internalType": "address",
          "name": "account",
          "type": "address"
        },
        {
          "internalType": "uint256",
          "name": "role",
          "type": "uint256"
        }
      ],
      "name": "AlreadyRegistered",
      "type": "error"
    },
    {
      "inputs": [
        {
          "internalType": "uint256",
          "name": "drugId",
          "type": "uint256"
        },
        {
          "internalType": "address",
          "name": "patient",
          "type": "address"
        }
      ],
      "name": "DrugsAlreadyActive",
      "type": "error"
    },
    {
      "inputs": [
        {
          "internalType": "uint256",
          "name": "index",
          "type": "uint256"
        },
        {
          "internalType": "uint256",
          "name": "length",
          "type": "uint256"
        }
      ],
      "name": "InvalidMedIndex",
      "type": "error"
    },
    {
      "inputs": [
        {
          "internalType": "uint256",
          "name": "index",
          "type": "uint256"
        },
        {
          "internalType": "uint256",
          "name": "length",
          "type": "uint256"
        }
      ],
      "name": "InvalidPharmacyId",
      "type": "error"
    },
    {
      "inputs": [],
      "name": "MismatchLengths",
      "type": "error"
    },
    {
      "inputs": [
        {
          "internalType": "uint256",
          "name": "role",
          "type": "uint256"
        },
        {
          "internalType": "address",
          "name": "account",
          "type": "address"
        }
      ],
      "name": "NotDoctor",
      "type": "error"
    },
    {
      "inputs": [
        {
          "internalType": "address",
          "name": "pharmacy",
          "type": "address"
        },
        {
          "internalType": "uint256",
          "name": "prescriptionID",
          "type": "uint256"
        },
        {
          "internalType": "uint256",
          "name": "drugId",
          "type": "uint256"
        }
      ],
      "name": "NotEnoughDrugs",
      "type": "error"
    },
    {
      "inputs": [
        {
          "internalType": "uint256",
          "name": "role",
          "type": "uint256"
        },
        {
          "internalType": "address",
          "name": "account",
          "type": "address"
        }
      ],
      "name": "NotPatient",
      "type": "error"
    },
    {
      "inputs": [
        {
          "internalType": "uint256",
          "name": "role",
          "type": "uint256"
        },
        {
          "internalType": "address",
          "name": "account",
          "type": "address"
        }
      ],
      "name": "NotPharmacy",
      "type": "error"
    },
    {
      "inputs": [
        {
          "internalType": "address",
          "name": "account",
          "type": "address"
        }
      ],
      "name": "NotRegistered",
      "type": "error"
    },
    {
      "inputs": [
        {
          "internalType": "uint256",
          "name": "prescriptionID",
          "type": "uint256"
        }
      ],
      "name": "PrescriptionAlreadyAccepted",
      "type": "error"
    },
    {
      "inputs": [
        {
          "internalType": "uint256",
          "name": "prescriptionId",
          "type": "uint256"
        }
      ],
      "name": "PrescriptionAlreadyOrdered",
      "type": "error"
    },
    {
      "inputs": [
        {
          "internalType": "uint256",
          "name": "prescriptionId",
          "type": "uint256"
        }
      ],
      "name": "PrescriptionNotAccepted",
      "type": "error"
    },
    {
      "inputs": [
        {
          "internalType": "address",
          "name": "sender",
          "type": "address"
        },
        {
          "internalType": "address",
          "name": "recipient",
          "type": "address"
        }
      ],
      "name": "PrescriptionNotForSender",
      "type": "error"
    },
    {
      "anonymous": false,
      "inputs": [
        {
          "indexed": true,
          "internalType": "uint256",
          "name": "prescriptionId",
          "type": "uint256"
        },
        {
          "indexed": true,
          "internalType": "address",
          "name": "patient",
          "type": "address"
        }
      ],
      "name": "MultiOrderPlaced",
      "type": "event"
    },
    {
      "anonymous": false,
      "inputs": [
        {
          "indexed": true,
          "internalType": "uint256",
          "name": "prescriptionId",
          "type": "uint256"
        },
        {
          "indexed": true,
          "internalType": "address",
          "name": "patient",
          "type": "address"
        },
        {
          "indexed": true,
          "internalType": "address",
          "name": "pharmacy",
          "type": "address"
        }
      ],
      "name": "OrderPlaced",
      "type": "event"
    },
    {
      "anonymous": false,
      "inputs": [
        {
          "indexed": true,
          "internalType": "uint256",
          "name": "prescriptionId",
          "type": "uint256"
        },
        {
          "indexed": true,
          "internalType": "address",
          "name": "patient",
          "type": "address"
        }
      ],
      "name": "PrescriptionAccepted",
      "type": "event"
    },
    {
      "anonymous": false,
      "inputs": [
        {
          "indexed": true,
          "internalType": "uint256",
          "name": "prescriptionId",
          "type": "uint256"
        },
        {
          "indexed": true,
          "internalType": "address",
          "name": "doctor",
          "type": "address"
        },
        {
          "indexed": true,
          "internalType": "address",
          "name": "patient",
          "type": "address"
        }
      ],
      "name": "PrescriptionCreated",
      "type": "event"
    },
    {
      "anonymous": false,
      "inputs": [
        {
          "indexed": true,
          "internalType": "address",
          "name": "account",
          "type": "address"
        },
        {
          "indexed": false,
          "internalType": "enum PrescriptionContract.Role",
          "name": "role",
          "type": "uint8"
        }
      ],
      "name": "Registered",
      "type": "event"
    },
    {
      "inputs": [
        {
          "internalType": "uint256",
          "name": "prescriptionId",
          "type": "uint256"
        }
      ],
      "name": "acceptPrescription",
      "outputs": [],
      "stateMutability": "nonpayable",
      "type": "function"
    },
    {
      "inputs": [
        {
          "internalType": "address",
          "name": "",
          "type": "address"
        },
        {
          "internalType": "uint256",
          "name": "",
          "type": "uint256"
        }
      ],
      "name": "activeDrug",
      "outputs": [
        {
          "internalType": "bool",
          "name": "",
          "type": "bool"
        }
      ],
      "stateMutability": "view",
      "type": "function"
    },
    {
      "inputs": [
        {
          "internalType": "address",
          "name": "patient",
          "type": "address"
        },
        {
          "internalType": "address",
          "name": "recommendedPharmacy",
          "type": "address"
        },
        {
          "internalType": "bytes32",
          "name": "detailsHash",
          "type": "bytes32"
        },
        {
          "components": [
            {
              "internalType": "uint256",
              "name": "drugId",
              "type": "uint256"
            },
            {
              "internalType": "uint256",
              "name": "dosage",
              "type": "uint256"
            },
            {
              "internalType": "uint256",
              "name": "no_days",
              "type": "uint256"
            }
          ],
          "internalType": "struct PrescriptionContract.Medication[]",
          "name": "meds",
          "type": "tuple[]"
        }
      ],
      "name": "createPrescription",
      "outputs": [],
      "stateMutability": "nonpayable",
      "type": "function"
    },
    {
      "inputs": [
        {
          "internalType": "address",
          "name": "patient",
          "type": "address"
        }
      ],
      "name": "getActiveDrugsOfPatient",
      "outputs": [
        {
          "internalType": "uint256[]",
          "name": "",
          "type": "uint256[]"
        }
      ],
      "stateMutability": "view",
      "type": "function"
    },
    {
      "inputs": [],
      "name": "getAllPharmacies",
      "outputs": [
        {
          "internalType": "address[]",
          "name": "",
          "type": "address[]"
        }
      ],
      "stateMutability": "view",
      "type": "function"
    },
    {
      "inputs": [
        {
          "internalType": "address",
          "name": "pharmacyAddr",
          "type": "address"
        }
      ],
      "name": "getInventoryForPharmacy",
      "outputs": [
        {
          "internalType": "uint256[]",
          "name": "drugIds",
          "type": "uint256[]"
        },
        {
          "internalType": "uint256[]",
          "name": "stocks",
          "type": "uint256[]"
        },
        {
          "internalType": "uint256[]",
          "name": "expirations",
          "type": "uint256[]"
        }
      ],
      "stateMutability": "view",
      "type": "function"
    },
    {
      "inputs": [
        {
          "internalType": "address",
          "name": "doctor",
          "type": "address"
        }
      ],
      "name": "getPatientsOfDoctor",
      "outputs": [
        {
          "internalType": "address[]",
          "name": "",
          "type": "address[]"
        }
      ],
      "stateMutability": "view",
      "type": "function"
    },
    {
      "inputs": [
        {
          "internalType": "uint256",
          "name": "id",
          "type": "uint256"
        }
      ],
      "name": "getPharmacyById",
      "outputs": [
        {
          "internalType": "address",
          "name": "",
          "type": "address"
        }
      ],
      "stateMutability": "view",
      "type": "function"
    },
    {
      "inputs": [
        {
          "internalType": "uint256",
          "name": "id",
          "type": "uint256"
        }
      ],
      "name": "getPrescriptionfromId",
      "outputs": [
        {
          "internalType": "address",
          "name": "doctor",
          "type": "address"
        },
        {
          "internalType": "address",
          "name": "patient",
          "type": "address"
        },
        {
          "internalType": "address",
          "name": "recommendedPharmacy",
          "type": "address"
        },
        {
          "internalType": "bytes32",
          "name": "detailsHash",
          "type": "bytes32"
        },
        {
          "components": [
            {
              "internalType": "uint256",
              "name": "drugId",
              "type": "uint256"
            },
            {
              "internalType": "uint256",
              "name": "dosage",
              "type": "uint256"
            },
            {
              "internalType": "uint256",
              "name": "no_days",
              "type": "uint256"
            }
          ],
          "internalType": "struct PrescriptionContract.Medication[]",
          "name": "medications",
          "type": "tuple[]"
        },
        {
          "internalType": "bool[]",
          "name": "orderedMedications",
          "type": "bool[]"
        },
        {
          "internalType": "uint256",
          "name": "timestamp",
          "type": "uint256"
        },
        {
          "internalType": "bool",
          "name": "accepted",
          "type": "bool"
        },
        {
          "internalType": "bool",
          "name": "ordered",
          "type": "bool"
        }
      ],
      "stateMutability": "view",
      "type": "function"
    },
    {
      "inputs": [
        {
          "internalType": "address",
          "name": "doctor",
          "type": "address"
        }
      ],
      "name": "getPrescriptionsByDoctor",
      "outputs": [
        {
          "internalType": "uint256[]",
          "name": "",
          "type": "uint256[]"
        }
      ],
      "stateMutability": "view",
      "type": "function"
    },
    {
      "inputs": [
        {
          "internalType": "address",
          "name": "patient",
          "type": "address"
        }
      ],
      "name": "getPrescriptionsByPatient",
      "outputs": [
        {
          "internalType": "uint256[]",
          "name": "",
          "type": "uint256[]"
        }
      ],
      "stateMutability": "view",
      "type": "function"
    },
    {
      "inputs": [
        {
          "internalType": "address",
          "name": "account",
          "type": "address"
        }
      ],
      "name": "getRole",
      "outputs": [
        {
          "internalType": "uint256",
          "name": "",
          "type": "uint256"
        }
      ],
      "stateMutability": "view",
      "type": "function"
    },
    {
      "inputs": [
        {
          "internalType": "address",
          "name": "",
          "type": "address"
        },
        {
          "internalType": "uint256",
          "name": "",
          "type": "uint256"
        }
      ],
      "name": "inventory",
      "outputs": [
        {
          "internalType": "uint256",
          "name": "stock",
          "type": "uint256"
        },
        {
          "internalType": "uint256",
          "name": "expiration",
          "type": "uint256"
        }
      ],
      "stateMutability": "view",
      "type": "function"
    },
    {
      "inputs": [
        {
          "internalType": "address",
          "name": "",
          "type": "address"
        }
      ],
      "name": "isPharmacyRegistered",
      "outputs": [
        {
          "internalType": "bool",
          "name": "",
          "type": "bool"
        }
      ],
      "stateMutability": "view",
      "type": "function"
    },
    {
      "inputs": [
        {
          "internalType": "uint256",
          "name": "prescriptionId",
          "type": "uint256"
        },
        {
          "internalType": "address",
          "name": "pharmacyAddress",
          "type": "address"
        },
        {
          "internalType": "bytes32",
          "name": "",
          "type": "bytes32"
        }
      ],
      "name": "orderPrescription",
      "outputs": [],
      "stateMutability": "nonpayable",
      "type": "function"
    },
    {
      "inputs": [
        {
          "internalType": "uint256",
          "name": "prescriptionId",
          "type": "uint256"
        },
        {
          "internalType": "address[]",
          "name": "pharmacyAddresses",
          "type": "address[]"
        },
        {
          "internalType": "uint256[][]",
          "name": "medIndices",
          "type": "uint256[][]"
        },
        {
          "internalType": "bytes32[]",
          "name": "orderHashes",
          "type": "bytes32[]"
        }
      ],
      "name": "orderPrescriptionMultiPharmacy",
      "outputs": [],
      "stateMutability": "nonpayable",
      "type": "function"
    },
    {
      "inputs": [
        {
          "internalType": "uint256",
          "name": "",
          "type": "uint256"
        }
      ],
      "name": "pharmacies",
      "outputs": [
        {
          "internalType": "address",
          "name": "",
          "type": "address"
        }
      ],
      "stateMutability": "view",
      "type": "function"
    },
    {
      "inputs": [],
      "name": "prescriptionCounter",
      "outputs": [
        {
          "internalType": "uint256",
          "name": "",
          "type": "uint256"
        }
      ],
      "stateMutability": "view",
      "type": "function"
    },
    {
      "inputs": [
        {
          "internalType": "uint256",
          "name": "",
          "type": "uint256"
        }
      ],
      "name": "prescriptions",
      "outputs": [
        {
          "internalType": "uint256",
          "name": "id",
          "type": "uint256"
        },
        {
          "internalType": "address",
          "name": "doctor",
          "type": "address"
        },
        {
          "internalType": "address",
          "name": "patient",
          "type": "address"
        },
        {
          "internalType": "address",
          "name": "recommendedPharmacy",
          "type": "address"
        },
        {
          "internalType": "bytes32",
          "name": "detailsHash",
          "type": "bytes32"
        },
        {
          "internalType": "uint256",
          "name": "timestamp",
          "type": "uint256"
        },
        {
          "internalType": "bool",
          "name": "accepted",
          "type": "bool"
        },
        {
          "internalType": "bool",
          "name": "ordered",
          "type": "bool"
        }
      ],
      "stateMutability": "view",
      "type": "function"
    },
    {
      "inputs": [],
      "name": "registerAsDoctor",
      "outputs": [],
      "stateMutability": "nonpayable",
      "type": "function"
    },
    {
      "inputs": [],
      "name": "registerAsPatient",
      "outputs": [],
      "stateMutability": "nonpayable",
      "type": "function"
    },
    {
      "inputs": [],
      "name": "registerAsPharmaceuticalCompany",
      "outputs": [],
      "stateMutability": "nonpayable",
      "type": "function"
    },
    {
      "inputs": [],
      "name": "registerAsPharmacy",
      "outputs": [],
      "stateMutability": "nonpayable",
      "type": "function"
    },
    {
      "inputs": [
        {
          "internalType": "address",
          "name": "",
          "type": "address"
        }
      ],
      "name": "roles",
      "outputs": [
        {
          "internalType": "enum PrescriptionContract.Role",
          "name": "",
          "type": "uint8"
        }
      ],
      "stateMutability": "view",
      "type": "function"
    },
    {
      "inputs": [
        {
          "internalType": "uint256[]",
          "name": "drugIds",
          "type": "uint256[]"
        },
        {
          "internalType": "uint256[]",
          "name": "stocks",
          "type": "uint256[]"
        },
        {
          "internalType": "uint256[]",
          "name": "expirations",
          "type": "uint256[]"
        }
      ],
      "name": "setInventory",
      "outputs": [],
      "stateMutability": "nonpayable",
      "type": "function"
    },
    {
      "inputs": [
        {
          "internalType": "uint256",
          "name": "drugId",
          "type": "uint256"
        },
        {
          "internalType": "uint256",
          "name": "amount",
          "type": "uint256"
        },
        {
          "internalType": "uint256",
          "name": "newExpiration",
          "type": "uint256"
        }
      ],
      "name": "updateInventory",
      "outputs": [],
      "stateMutability": "nonpayable",
      "type": "function"
    },
    {
      "inputs": [
        {
          "internalType": "address",
          "name": "pharmacy",
          "type": "address"
        },
        {
          "internalType": "uint256",
          "name": "drugId",
          "type": "uint256"
        },
        {
          "internalType": "uint256",
          "name": "amount",
          "type": "uint256"
        },
        {
          "internalType": "uint256",
          "name": "expiration",
          "type": "uint256"
        }
      ],
      "name": "updatePharmacyInventory",
      "outputs": [],
      "stateMutability": "nonpayable",
      "type": "function"
    }
  ],
  "transactionHash": "0xe2ee22cac041971c347367ad8c48f34b068dfa07dabd5c6f64c7fdd41ae46c33",
  "args": [],
  "numDeployments": 1,
  "solcInputHash": "a86c2442931478319aea4c96e9e703c4",
  "bytecode": "0x6080604052348015600f57600080fd5b50614bc78061001f6000396000f3fe608060405234801561001057600080fd5b50600436106101a95760003560e01c806382a7fa4a116100f9578063aab1d13811610097578063e0acc69811610071578063e0acc69814610502578063f0544ad814610532578063f068e4881461054e578063f33465e41461056a576101a9565b8063aab1d13814610470578063ca7c3690146104a0578063db03f282146104d0576101a9565b806399374642116100d357806399374642146104105780639e634a7b14610440578063a4fd673e1461044a578063a99ad4ee14610466576101a9565b806382a7fa4a146103925780638a5acd73146103b0578063988559f5146103e0576101a9565b80635e228e4c116101665780636ba7fe7f116101405780636ba7fe7f1461031e5780636cb876d014610328578063742ccef0146103325780637afe24ef14610362576101a9565b80635e228e4c146102b557806368e5a39c146102d157806368f222fd146102ed576101a9565b806331dfc91b146101ae57806336cd6114146101e557806342acf3941461020157806344276733146102395780635cab3e27146102695780635dd5a6cc14610285575b600080fd5b6101c860048036038101906101c39190613aea565b610588565b6040516101dc989796959493929190613b9b565b60405180910390f35b6101ff60048036038101906101fa9190613c45565b61064a565b005b61021b60048036038101906102169190613aea565b6107cd565b60405161023099989796959493929190613e6a565b60405180910390f35b610253600480360381019061024e9190613f05565b6109a4565b6040516102609190613f32565b60405180910390f35b610283600480360381019061027e9190613f4d565b610a0b565b005b61029f600480360381019061029a9190613f05565b610bef565b6040516102ac9190613fa0565b60405180910390f35b6102cf60048036038101906102ca91906140cc565b610c0f565b005b6102eb60048036038101906102e691906141c1565b6113c5565b005b61030760048036038101906103029190614214565b611af3565b604051610315929190614254565b60405180910390f35b610326611b24565b005b610330611d39565b005b61034c60048036038101906103479190613f05565b611f4e565b604051610359919061432c565b60405180910390f35b61037c60048036038101906103779190613aea565b611fe5565b604051610389919061434e565b60405180910390f35b61039a61207d565b6040516103a79190613f32565b60405180910390f35b6103ca60048036038101906103c59190613aea565b612083565b6040516103d7919061434e565b60405180910390f35b6103fa60048036038101906103f59190613f05565b6120c2565b604051610407919061432c565b60405180910390f35b61042a60048036038101906104259190613f05565b612159565b60405161043791906143e0565b60405180910390f35b610448612179565b005b610464600480360381019061045f9190613aea565b61249b565b005b61046e612943565b005b61048a60048036038101906104859190614214565b612b58565b6040516104979190613fa0565b60405180910390f35b6104ba60048036038101906104b59190613f05565b612b87565b6040516104c791906144b9565b60405180910390f35b6104ea60048036038101906104e59190613f05565b612c54565b6040516104f9939291906144db565b60405180910390f35b61051c60048036038101906105179190613f05565b612f09565b604051610529919061432c565b60405180910390f35b61054c6004803603810190610547919061457d565b612fa0565b005b6105686004803603810190610563919061465b565b6134ae565b005b61057261370e565b60405161057f91906144b9565b60405180910390f35b60046020528060005260406000206000915090508060000154908060010160009054906101000a900473ffffffffffffffffffffffffffffffffffffffff16908060020160009054906101000a900473ffffffffffffffffffffffffffffffffffffffff16908060030160009054906101000a900473ffffffffffffffffffffffffffffffffffffffff16908060040154908060070154908060080160009054906101000a900460ff16908060080160019054906101000a900460ff16905088565b60048081111561065d5761065c614369565b5b6000803373ffffffffffffffffffffffffffffffffffffffff1673ffffffffffffffffffffffffffffffffffffffff16815260200190815260200160002060009054906101000a900460ff1660048111156106bb576106ba614369565b5b146106fb576040517f08c379a00000000000000000000000000000000000000000000000000000000081526004016106f29061476c565b60405180910390fd5b81600a60008673ffffffffffffffffffffffffffffffffffffffff1673ffffffffffffffffffffffffffffffffffffffff1681526020019081526020016000206000858152602001908152602001600020600001600082825461075e91906147bb565b9250508190555080600a60008673ffffffffffffffffffffffffffffffffffffffff1673ffffffffffffffffffffffffffffffffffffffff1681526020019081526020016000206000858152602001908152602001600020600101819055506107c7848461379c565b50505050565b600080600080606080600080600080600460008c815260200190815260200160002090508060010160009054906101000a900473ffffffffffffffffffffffffffffffffffffffff168160020160009054906101000a900473ffffffffffffffffffffffffffffffffffffffff168260030160009054906101000a900473ffffffffffffffffffffffffffffffffffffffff168360040154846005018560060186600701548760080160009054906101000a900460ff168860080160019054906101000a900460ff1684805480602002602001604051908101604052809291908181526020016000905b8282101561090757838290600052602060002090600302016040518060600160405290816000820154815260200160018201548152602001600282015481525050815260200190600101906108b7565b5050505094508380548060200260200160405190810160405280929190818152602001828054801561097d57602002820191906000526020600020906000905b82829054906101000a900460ff161515815260200190600101906020826000010492830192600103820291508084116109475790505b50505050509350995099509950995099509950995099509950509193959799909294969850565b60008060008373ffffffffffffffffffffffffffffffffffffffff1673ffffffffffffffffffffffffffffffffffffffff16815260200190815260200160002060009054906101000a900460ff166004811115610a0457610a03614369565b5b9050919050565b60036004811115610a1f57610a1e614369565b5b6000803373ffffffffffffffffffffffffffffffffffffffff1673ffffffffffffffffffffffffffffffffffffffff16815260200190815260200160002060009054906101000a900460ff166004811115610a7d57610a7c614369565b5b14610b1e576000803373ffffffffffffffffffffffffffffffffffffffff1673ffffffffffffffffffffffffffffffffffffffff16815260200190815260200160002060009054906101000a900460ff166004811115610ae057610adf614369565b5b336040517f07ffa9ef000000000000000000000000000000000000000000000000000000008152600401610b159291906147ef565b60405180910390fd5b81600a60003373ffffffffffffffffffffffffffffffffffffffff1673ffffffffffffffffffffffffffffffffffffffff16815260200190815260200160002060008581526020019081526020016000206000016000828254610b8191906147bb565b9250508190555080600a60003373ffffffffffffffffffffffffffffffffffffffff1673ffffffffffffffffffffffffffffffffffffffff168152602001908152602001600020600085815260200190815260200160002060010181905550610bea338461379c565b505050565b60026020528060005260406000206000915054906101000a900460ff1681565b60026004811115610c2357610c22614369565b5b6000803373ffffffffffffffffffffffffffffffffffffffff1673ffffffffffffffffffffffffffffffffffffffff16815260200190815260200160002060009054906101000a900460ff166004811115610c8157610c80614369565b5b14610d22576000803373ffffffffffffffffffffffffffffffffffffffff1673ffffffffffffffffffffffffffffffffffffffff16815260200190815260200160002060009054906101000a900460ff166004811115610ce457610ce3614369565b5b336040517fad852b14000000000000000000000000000000000000000000000000000000008152600401610d199291906147ef565b60405180910390fd5b60006004600089815260200190815260200160002090508060020160009054906101000a900473ffffffffffffffffffffffffffffffffffffffff1673ffffffffffffffffffffffffffffffffffffffff163373ffffffffffffffffffffffffffffffffffffffff1614610df357338160020160009054906101000a900473ffffffffffffffffffffffffffffffffffffffff166040517f7be3ba3b000000000000000000000000000000000000000000000000000000008152600401610dea929190614818565b60405180910390fd5b8060080160009054906101000a900460ff16610e4657876040517f87c89179000000000000000000000000000000000000000000000000000000008152600401610e3d9190613f32565b60405180910390fd5b8484905087879050141580610e615750828290508787905014155b15610e98576040517f8f6c6f4800000000000000000000000000000000000000000000000000000000815260040160405180910390fd5b60005b87879050811015611376576000888883818110610ebb57610eba614841565b5b9050602002016020810190610ed09190613f05565b905060036004811115610ee657610ee5614369565b5b6000808373ffffffffffffffffffffffffffffffffffffffff1673ffffffffffffffffffffffffffffffffffffffff16815260200190815260200160002060009054906101000a900460ff166004811115610f4457610f43614369565b5b14610fe5576000808273ffffffffffffffffffffffffffffffffffffffff1673ffffffffffffffffffffffffffffffffffffffff16815260200190815260200160002060009054906101000a900460ff166004811115610fa757610fa6614369565b5b816040517f07ffa9ef000000000000000000000000000000000000000000000000000000008152600401610fdc9291906147ef565b60405180910390fd5b366000888885818110610ffb57610ffa614841565b5b905060200281019061100d919061487f565b9150915060008c905060005b8383905081101561136457600084848381811061103957611038614841565b5b90506020020135905087600501805490508110611096578088600501805490506040517f51bd95c400000000000000000000000000000000000000000000000000000000815260040161108d929190614254565b60405180910390fd5b8760060181815481106110ac576110ab614841565b5b90600052602060002090602091828204019190069054906101000a900460ff1615611110578e816040517f085da392000000000000000000000000000000000000000000000000000000008152600401611107929190614254565b60405180910390fd5b600088600501828154811061112857611127614841565b5b9060005260206000209060030201600001549050600089600501838154811061115457611153614841565b5b9060005260206000209060030201600201548a600501848154811061117c5761117b614841565b5b90600052602060002090600302016001015461119891906148e2565b905080600a60008a73ffffffffffffffffffffffffffffffffffffffff1673ffffffffffffffffffffffffffffffffffffffff1681526020019081526020016000206000848152602001908152602001600020600001541015611236578785836040517ffe5bd78200000000000000000000000000000000000000000000000000000000815260040161122d93929190614924565b60405180910390fd5b80600a60008a73ffffffffffffffffffffffffffffffffffffffff1673ffffffffffffffffffffffffffffffffffffffff16815260200190815260200160002060008481526020019081526020016000206000016000828254611299919061495b565b9250508190555060018a60060184815481106112b8576112b7614841565b5b90600052602060002090602091828204019190066101000a81548160ff0219169083151502179055506000600560003373ffffffffffffffffffffffffffffffffffffffff1673ffffffffffffffffffffffffffffffffffffffff168152602001908152602001600020600084815260200190815260200160002060006101000a81548160ff021916908315150217905550611354338361385e565b5050508080600101915050611019565b50505050508080600101915050610e9b565b503373ffffffffffffffffffffffffffffffffffffffff16887f62a40242259c3f2ceecd6e9e95c6aa192ea71b07ceb8cf5185512385c99d617260405160405180910390a35050505050505050565b600260048111156113d9576113d8614369565b5b6000803373ffffffffffffffffffffffffffffffffffffffff1673ffffffffffffffffffffffffffffffffffffffff16815260200190815260200160002060009054906101000a900460ff16600481111561143757611436614369565b5b146114d8576000803373ffffffffffffffffffffffffffffffffffffffff1673ffffffffffffffffffffffffffffffffffffffff16815260200190815260200160002060009054906101000a900460ff16600481111561149a57611499614369565b5b336040517fad852b140000000000000000000000000000000000000000000000000000000081526004016114cf9291906147ef565b60405180910390fd5b60006004600085815260200190815260200160002090508060020160009054906101000a900473ffffffffffffffffffffffffffffffffffffffff1673ffffffffffffffffffffffffffffffffffffffff163373ffffffffffffffffffffffffffffffffffffffff16146115a957338160020160009054906101000a900473ffffffffffffffffffffffffffffffffffffffff166040517f7be3ba3b0000000000000000000000000000000000000000000000000000000081526004016115a0929190614818565b60405180910390fd5b8060080160009054906101000a900460ff166115fc57836040517f87c891790000000000000000000000000000000000000000000000000000000081526004016115f39190613f32565b60405180910390fd5b8060080160019054906101000a900460ff161561165057836040517f7cb740680000000000000000000000000000000000000000000000000000000081526004016116479190613f32565b60405180910390fd5b6003600481111561166457611663614369565b5b6000808573ffffffffffffffffffffffffffffffffffffffff1673ffffffffffffffffffffffffffffffffffffffff16815260200190815260200160002060009054906101000a900460ff1660048111156116c2576116c1614369565b5b14611763576000808473ffffffffffffffffffffffffffffffffffffffff1673ffffffffffffffffffffffffffffffffffffffff16815260200190815260200160002060009054906101000a900460ff16600481111561172557611724614369565b5b836040517f07ffa9ef00000000000000000000000000000000000000000000000000000000815260040161175a9291906147ef565b60405180910390fd5b60005b81600501805490508110156118aa57600082600501828154811061178d5761178c614841565b5b906000526020600020906003020160000154905060008360050183815481106117b9576117b8614841565b5b9060005260206000209060030201600201548460050184815481106117e1576117e0614841565b5b9060005260206000209060030201600101546117fd91906148e2565b905080600a60008873ffffffffffffffffffffffffffffffffffffffff1673ffffffffffffffffffffffffffffffffffffffff168152602001908152602001600020600084815260200190815260200160002060000154101561189b578587836040517ffe5bd78200000000000000000000000000000000000000000000000000000000815260040161189293929190614924565b60405180910390fd5b50508080600101915050611766565b5060005b8160050180549050811015611a745760008260050182815481106118d5576118d4614841565b5b9060005260206000209060030201600001549050600083600501838154811061190157611900614841565b5b90600052602060002090600302016002015484600501848154811061192957611928614841565b5b90600052602060002090600302016001015461194591906148e2565b905080600a60008873ffffffffffffffffffffffffffffffffffffffff1673ffffffffffffffffffffffffffffffffffffffff168152602001908152602001600020600084815260200190815260200160002060000160008282546119aa919061495b565b925050819055506000600560003373ffffffffffffffffffffffffffffffffffffffff1673ffffffffffffffffffffffffffffffffffffffff168152602001908152602001600020600084815260200190815260200160002060006101000a81548160ff021916908315150217905550611a24338361385e565b6001846006018481548110611a3c57611a3b614841565b5b90600052602060002090602091828204019190066101000a81548160ff021916908315150217905550505080806001019150506118ae565b5060018160080160016101000a81548160ff0219169083151502179055508273ffffffffffffffffffffffffffffffffffffffff163373ffffffffffffffffffffffffffffffffffffffff16857f4230a4fc42ebf80b234f0270f890fd6facf785b69f172b976895e3ba6aeb286660405160405180910390a450505050565b600a602052816000526040600020602052806000526040600020600091509150508060000154908060010154905082565b60006004811115611b3857611b37614369565b5b6000803373ffffffffffffffffffffffffffffffffffffffff1673ffffffffffffffffffffffffffffffffffffffff16815260200190815260200160002060009054906101000a900460ff166004811115611b9657611b95614369565b5b14611c3757336000803373ffffffffffffffffffffffffffffffffffffffff1673ffffffffffffffffffffffffffffffffffffffff16815260200190815260200160002060009054906101000a900460ff166004811115611bfa57611bf9614369565b5b6040517f4baa5977000000000000000000000000000000000000000000000000000000008152600401611c2e92919061498f565b60405180910390fd5b60016000803373ffffffffffffffffffffffffffffffffffffffff1673ffffffffffffffffffffffffffffffffffffffff16815260200190815260200160002060006101000a81548160ff02191690836004811115611c9957611c98614369565b5b02179055503373ffffffffffffffffffffffffffffffffffffffff167f89b4e995568c900aa52376cbed225dc1a013c9a43cb58186d69676ff593d7c4e6000803373ffffffffffffffffffffffffffffffffffffffff1673ffffffffffffffffffffffffffffffffffffffff16815260200190815260200160002060009054906101000a900460ff16604051611d2f91906143e0565b60405180910390a2565b60006004811115611d4d57611d4c614369565b5b6000803373ffffffffffffffffffffffffffffffffffffffff1673ffffffffffffffffffffffffffffffffffffffff16815260200190815260200160002060009054906101000a900460ff166004811115611dab57611daa614369565b5b14611e4c57336000803373ffffffffffffffffffffffffffffffffffffffff1673ffffffffffffffffffffffffffffffffffffffff16815260200190815260200160002060009054906101000a900460ff166004811115611e0f57611e0e614369565b5b6040517f4baa5977000000000000000000000000000000000000000000000000000000008152600401611e4392919061498f565b60405180910390fd5b60046000803373ffffffffffffffffffffffffffffffffffffffff1673ffffffffffffffffffffffffffffffffffffffff16815260200190815260200160002060006101000a81548160ff02191690836004811115611eae57611ead614369565b5b02179055503373ffffffffffffffffffffffffffffffffffffffff167f89b4e995568c900aa52376cbed225dc1a013c9a43cb58186d69676ff593d7c4e6000803373ffffffffffffffffffffffffffffffffffffffff1673ffffffffffffffffffffffffffffffffffffffff16815260200190815260200160002060009054906101000a900460ff16604051611f4491906143e0565b60405180910390a2565b6060600660008373ffffffffffffffffffffffffffffffffffffffff1673ffffffffffffffffffffffffffffffffffffffff168152602001908152602001600020805480602002602001604051908101604052809291908181526020018280548015611fd957602002820191906000526020600020905b815481526020019060010190808311611fc5575b50505050509050919050565b6000600180549050821061203757816001805490506040517f2b87a07f00000000000000000000000000000000000000000000000000000000815260040161202e929190614254565b60405180910390fd5b6001828154811061204b5761204a614841565b5b9060005260206000200160009054906101000a900473ffffffffffffffffffffffffffffffffffffffff169050919050565b60035481565b6001818154811061209357600080fd5b906000526020600020016000915054906101000a900473ffffffffffffffffffffffffffffffffffffffff1681565b6060600860008373ffffffffffffffffffffffffffffffffffffffff1673ffffffffffffffffffffffffffffffffffffffff16815260200190815260200160002080548060200260200160405190810160405280929190818152602001828054801561214d57602002820191906000526020600020905b815481526020019060010190808311612139575b50505050509050919050565b60006020528060005260406000206000915054906101000a900460ff1681565b6000600481111561218d5761218c614369565b5b6000803373ffffffffffffffffffffffffffffffffffffffff1673ffffffffffffffffffffffffffffffffffffffff16815260200190815260200160002060009054906101000a900460ff1660048111156121eb576121ea614369565b5b1461228c57336000803373ffffffffffffffffffffffffffffffffffffffff1673ffffffffffffffffffffffffffffffffffffffff16815260200190815260200160002060009054906101000a900460ff16600481111561224f5761224e614369565b5b6040517f4baa597700000000000000000000000000000000000000000000000000000000815260040161228392919061498f565b60405180910390fd5b60036000803373ffffffffffffffffffffffffffffffffffffffff1673ffffffffffffffffffffffffffffffffffffffff16815260200190815260200160002060006101000a81548160ff021916908360048111156122ee576122ed614369565b5b02179055503373ffffffffffffffffffffffffffffffffffffffff167f89b4e995568c900aa52376cbed225dc1a013c9a43cb58186d69676ff593d7c4e6000803373ffffffffffffffffffffffffffffffffffffffff1673ffffffffffffffffffffffffffffffffffffffff16815260200190815260200160002060009054906101000a900460ff1660405161238491906143e0565b60405180910390a2600260003373ffffffffffffffffffffffffffffffffffffffff1673ffffffffffffffffffffffffffffffffffffffff16815260200190815260200160002060009054906101000a900460ff16612499576001339080600181540180825580915050600190039060005260206000200160009091909190916101000a81548173ffffffffffffffffffffffffffffffffffffffff021916908373ffffffffffffffffffffffffffffffffffffffff1602179055506001600260003373ffffffffffffffffffffffffffffffffffffffff1673ffffffffffffffffffffffffffffffffffffffff16815260200190815260200160002060006101000a81548160ff0219169083151502179055505b565b600260048111156124af576124ae614369565b5b6000803373ffffffffffffffffffffffffffffffffffffffff1673ffffffffffffffffffffffffffffffffffffffff16815260200190815260200160002060009054906101000a900460ff16600481111561250d5761250c614369565b5b146125ae576000803373ffffffffffffffffffffffffffffffffffffffff1673ffffffffffffffffffffffffffffffffffffffff16815260200190815260200160002060009054906101000a900460ff1660048111156125705761256f614369565b5b336040517fad852b140000000000000000000000000000000000000000000000000000000081526004016125a59291906147ef565b60405180910390fd5b60006004600083815260200190815260200160002090503373ffffffffffffffffffffffffffffffffffffffff168160020160009054906101000a900473ffffffffffffffffffffffffffffffffffffffff1673ffffffffffffffffffffffffffffffffffffffff161461267f578060020160009054906101000a900473ffffffffffffffffffffffffffffffffffffffff16336040517f7be3ba3b000000000000000000000000000000000000000000000000000000008152600401612676929190614818565b60405180910390fd5b8060080160009054906101000a900460ff16156126d357816040517fbd2622a30000000000000000000000000000000000000000000000000000000081526004016126ca9190613f32565b60405180910390fd5b60005b81600501805490508110156127c15760008260050182815481106126fd576126fc614841565b5b9060005260206000209060030201600001549050600560003373ffffffffffffffffffffffffffffffffffffffff1673ffffffffffffffffffffffffffffffffffffffff168152602001908152602001600020600082815260200190815260200160002060009054906101000a900460ff16156127b35780336040517f748a74600000000000000000000000000000000000000000000000000000000081526004016127aa9291906147ef565b60405180910390fd5b5080806001019150506126d6565b5060018160080160006101000a81548160ff02191690831515021790555060005b81600501805490508110156128fa57600082600501828154811061280957612808614841565b5b90600052602060002090600302016000015490506001600560003373ffffffffffffffffffffffffffffffffffffffff1673ffffffffffffffffffffffffffffffffffffffff168152602001908152602001600020600083815260200190815260200160002060006101000a81548160ff021916908315150217905550600660003373ffffffffffffffffffffffffffffffffffffffff1673ffffffffffffffffffffffffffffffffffffffff1681526020019081526020016000208190806001815401808255809150506001900390600052602060002001600090919091909150555080806001019150506127e2565b503373ffffffffffffffffffffffffffffffffffffffff16827fde00084ab0cfbed100269c33cd062c3e925f6d8867dd7c9bd62b795c2ebbd67060405160405180910390a35050565b6000600481111561295757612956614369565b5b6000803373ffffffffffffffffffffffffffffffffffffffff1673ffffffffffffffffffffffffffffffffffffffff16815260200190815260200160002060009054906101000a900460ff1660048111156129b5576129b4614369565b5b14612a5657336000803373ffffffffffffffffffffffffffffffffffffffff1673ffffffffffffffffffffffffffffffffffffffff16815260200190815260200160002060009054906101000a900460ff166004811115612a1957612a18614369565b5b6040517f4baa5977000000000000000000000000000000000000000000000000000000008152600401612a4d92919061498f565b60405180910390fd5b60026000803373ffffffffffffffffffffffffffffffffffffffff1673ffffffffffffffffffffffffffffffffffffffff16815260200190815260200160002060006101000a81548160ff02191690836004811115612ab857612ab7614369565b5b02179055503373ffffffffffffffffffffffffffffffffffffffff167f89b4e995568c900aa52376cbed225dc1a013c9a43cb58186d69676ff593d7c4e6000803373ffffffffffffffffffffffffffffffffffffffff1673ffffffffffffffffffffffffffffffffffffffff16815260200190815260200160002060009054906101000a900460ff16604051612b4e91906143e0565b60405180910390a2565b60056020528160005260406000206020528060005260406000206000915091509054906101000a900460ff1681565b6060600760008373ffffffffffffffffffffffffffffffffffffffff1673ffffffffffffffffffffffffffffffffffffffff168152602001908152602001600020805480602002602001604051908101604052809291908181526020018280548015612c4857602002820191906000526020600020905b8160009054906101000a900473ffffffffffffffffffffffffffffffffffffffff1673ffffffffffffffffffffffffffffffffffffffff1681526020019060010190808311612bfe575b50505050509050919050565b60608060606000600b60008673ffffffffffffffffffffffffffffffffffffffff1673ffffffffffffffffffffffffffffffffffffffff1681526020019081526020016000208054905090508067ffffffffffffffff811115612cba57612cb96149b8565b5b604051908082528060200260200182016040528015612ce85781602001602082028036833780820191505090505b5093508067ffffffffffffffff811115612d0557612d046149b8565b5b604051908082528060200260200182016040528015612d335781602001602082028036833780820191505090505b5092508067ffffffffffffffff811115612d5057612d4f6149b8565b5b604051908082528060200260200182016040528015612d7e5781602001602082028036833780820191505090505b50915060005b81811015612f00576000600b60008873ffffffffffffffffffffffffffffffffffffffff1673ffffffffffffffffffffffffffffffffffffffff1681526020019081526020016000208281548110612ddf57612dde614841565b5b9060005260206000200154905080868381518110612e0057612dff614841565b5b602002602001018181525050600a60008873ffffffffffffffffffffffffffffffffffffffff1673ffffffffffffffffffffffffffffffffffffffff168152602001908152602001600020600082815260200190815260200160002060000154858381518110612e7357612e72614841565b5b602002602001018181525050600a60008873ffffffffffffffffffffffffffffffffffffffff1673ffffffffffffffffffffffffffffffffffffffff168152602001908152602001600020600082815260200190815260200160002060010154848381518110612ee657612ee5614841565b5b602002602001018181525050508080600101915050612d84565b50509193909250565b6060600960008373ffffffffffffffffffffffffffffffffffffffff1673ffffffffffffffffffffffffffffffffffffffff168152602001908152602001600020805480602002602001604051908101604052809291908181526020018280548015612f9457602002820191906000526020600020905b815481526020019060010190808311612f80575b50505050509050919050565b60016004811115612fb457612fb3614369565b5b6000803373ffffffffffffffffffffffffffffffffffffffff1673ffffffffffffffffffffffffffffffffffffffff16815260200190815260200160002060009054906101000a900460ff16600481111561301257613011614369565b5b146130b3576000803373ffffffffffffffffffffffffffffffffffffffff1673ffffffffffffffffffffffffffffffffffffffff16815260200190815260200160002060009054906101000a900460ff16600481111561307557613074614369565b5b336040517f027a40b00000000000000000000000000000000000000000000000000000000081526004016130aa9291906147ef565b60405180910390fd5b600260048111156130c7576130c6614369565b5b6000808773ffffffffffffffffffffffffffffffffffffffff1673ffffffffffffffffffffffffffffffffffffffff16815260200190815260200160002060009054906101000a900460ff16600481111561312557613124614369565b5b1461316757846040517fbfc6c33700000000000000000000000000000000000000000000000000000000815260040161315e919061434e565b60405180910390fd5b6003600081548092919061317a906149e7565b9190505550600060046000600354815260200190815260200160002090506003548160000181905550338160010160006101000a81548173ffffffffffffffffffffffffffffffffffffffff021916908373ffffffffffffffffffffffffffffffffffffffff160217905550858160020160006101000a81548173ffffffffffffffffffffffffffffffffffffffff021916908373ffffffffffffffffffffffffffffffffffffffff160217905550848160030160006101000a81548173ffffffffffffffffffffffffffffffffffffffff021916908373ffffffffffffffffffffffffffffffffffffffff16021790555083816004018190555042816007018190555060008160080160006101000a81548160ff02191690831515021790555060008160080160016101000a81548160ff02191690831515021790555060005b8383905081101561336e57816005018484838181106132dd576132dc614841565b5b905060600201908060018154018082558091505060019003906000526020600020906003020160009091909190915081816133189190614b54565b505081600601600090806001815401808255809150506001900390600052602060002090602091828204019190069091909190916101000a81548160ff02191690831515021790555080806001019150506132bb565b50600860003373ffffffffffffffffffffffffffffffffffffffff1673ffffffffffffffffffffffffffffffffffffffff1681526020019081526020016000206003549080600181540180825580915050600190039060005260206000200160009091909190915055600960008773ffffffffffffffffffffffffffffffffffffffff1673ffffffffffffffffffffffffffffffffffffffff16815260200190815260200160002060035490806001815401808255809150506001900390600052602060002001600090919091909150556134493387613962565b8573ffffffffffffffffffffffffffffffffffffffff163373ffffffffffffffffffffffffffffffffffffffff166003547f71d940cbfc82410e0b18e63896ef651239da8c4875128cfa30d1637278d0267060405160405180910390a4505050505050565b600360048111156134c2576134c1614369565b5b6000803373ffffffffffffffffffffffffffffffffffffffff1673ffffffffffffffffffffffffffffffffffffffff16815260200190815260200160002060009054906101000a900460ff1660048111156135205761351f614369565b5b146135c1576000803373ffffffffffffffffffffffffffffffffffffffff1673ffffffffffffffffffffffffffffffffffffffff16815260200190815260200160002060009054906101000a900460ff16600481111561358357613582614369565b5b336040517f07ffa9ef0000000000000000000000000000000000000000000000000000000081526004016135b89291906147ef565b60405180910390fd5b838390508686905014613600576040517f8f6c6f4800000000000000000000000000000000000000000000000000000000815260040160405180910390fd5b60005b8686905081101561370557604051806040016040528086868481811061362c5761362b614841565b5b90506020020135815260200184848481811061364b5761364a614841565b5b90506020020135815250600a60003373ffffffffffffffffffffffffffffffffffffffff1673ffffffffffffffffffffffffffffffffffffffff16815260200190815260200160002060008989858181106136a9576136a8614841565b5b90506020020135815260200190815260200160002060008201518160000155602082015181600101559050506136f8338888848181106136ec576136eb614841565b5b9050602002013561379c565b8080600101915050613603565b50505050505050565b6060600180548060200260200160405190810160405280929190818152602001828054801561379257602002820191906000526020600020905b8160009054906101000a900473ffffffffffffffffffffffffffffffffffffffff1673ffffffffffffffffffffffffffffffffffffffff1681526020019060010190808311613748575b5050505050905090565b6000600b60008473ffffffffffffffffffffffffffffffffffffffff1673ffffffffffffffffffffffffffffffffffffffff16815260200190815260200160002090506000805b8280549050811015613829578383828154811061380357613802614841565b5b90600052602060002001540361381c5760019150613829565b80806001019150506137e3565b508061385857818390806001815401808255809150506001900390600052602060002001600090919091909150555b50505050565b6000600660008473ffffffffffffffffffffffffffffffffffffffff1673ffffffffffffffffffffffffffffffffffffffff168152602001908152602001600020905060005b818054905081101561395c57828282815481106138c4576138c3614841565b5b90600052602060002001540361394f5781600183805490506138e6919061495b565b815481106138f7576138f6614841565b5b906000526020600020015482828154811061391557613914614841565b5b90600052602060002001819055508180548061393457613933614b62565b5b6001900381819060005260206000200160009055905561395c565b80806001019150506138a4565b50505050565b600080600760008573ffffffffffffffffffffffffffffffffffffffff1673ffffffffffffffffffffffffffffffffffffffff168152602001908152602001600020905060005b8180549050811015613a3b578373ffffffffffffffffffffffffffffffffffffffff168282815481106139df576139de614841565b5b9060005260206000200160009054906101000a900473ffffffffffffffffffffffffffffffffffffffff1673ffffffffffffffffffffffffffffffffffffffff1603613a2e5760019250613a3b565b80806001019150506139a9565b5081613aa45780839080600181540180825580915050600190039060005260206000200160009091909190916101000a81548173ffffffffffffffffffffffffffffffffffffffff021916908373ffffffffffffffffffffffffffffffffffffffff1602179055505b50505050565b600080fd5b600080fd5b6000819050919050565b613ac781613ab4565b8114613ad257600080fd5b50565b600081359050613ae481613abe565b92915050565b600060208284031215613b0057613aff613aaa565b5b6000613b0e84828501613ad5565b91505092915050565b613b2081613ab4565b82525050565b600073ffffffffffffffffffffffffffffffffffffffff82169050919050565b6000613b5182613b26565b9050919050565b613b6181613b46565b82525050565b6000819050919050565b613b7a81613b67565b82525050565b60008115159050919050565b613b9581613b80565b82525050565b600061010082019050613bb1600083018b613b17565b613bbe602083018a613b58565b613bcb6040830189613b58565b613bd86060830188613b58565b613be56080830187613b71565b613bf260a0830186613b17565b613bff60c0830185613b8c565b613c0c60e0830184613b8c565b9998505050505050505050565b613c2281613b46565b8114613c2d57600080fd5b50565b600081359050613c3f81613c19565b92915050565b60008060008060808587031215613c5f57613c5e613aaa565b5b6000613c6d87828801613c30565b9450506020613c7e87828801613ad5565b9350506040613c8f87828801613ad5565b9250506060613ca087828801613ad5565b91505092959194509250565b600081519050919050565b600082825260208201905092915050565b6000819050602082019050919050565b613ce181613ab4565b82525050565b606082016000820151613cfd6000850182613cd8565b506020820151613d106020850182613cd8565b506040820151613d236040850182613cd8565b50505050565b6000613d358383613ce7565b60608301905092915050565b6000602082019050919050565b6000613d5982613cac565b613d638185613cb7565b9350613d6e83613cc8565b8060005b83811015613d9f578151613d868882613d29565b9750613d9183613d41565b925050600181019050613d72565b5085935050505092915050565b600081519050919050565b600082825260208201905092915050565b6000819050602082019050919050565b613de181613b80565b82525050565b6000613df38383613dd8565b60208301905092915050565b6000602082019050919050565b6000613e1782613dac565b613e218185613db7565b9350613e2c83613dc8565b8060005b83811015613e5d578151613e448882613de7565b9750613e4f83613dff565b925050600181019050613e30565b5085935050505092915050565b600061012082019050613e80600083018c613b58565b613e8d602083018b613b58565b613e9a604083018a613b58565b613ea76060830189613b71565b8181036080830152613eb98188613d4e565b905081810360a0830152613ecd8187613e0c565b9050613edc60c0830186613b17565b613ee960e0830185613b8c565b613ef7610100830184613b8c565b9a9950505050505050505050565b600060208284031215613f1b57613f1a613aaa565b5b6000613f2984828501613c30565b91505092915050565b6000602082019050613f476000830184613b17565b92915050565b600080600060608486031215613f6657613f65613aaa565b5b6000613f7486828701613ad5565b9350506020613f8586828701613ad5565b9250506040613f9686828701613ad5565b9150509250925092565b6000602082019050613fb56000830184613b8c565b92915050565b600080fd5b600080fd5b600080fd5b60008083601f840112613fe057613fdf613fbb565b5b8235905067ffffffffffffffff811115613ffd57613ffc613fc0565b5b60208301915083602082028301111561401957614018613fc5565b5b9250929050565b60008083601f84011261403657614035613fbb565b5b8235905067ffffffffffffffff81111561405357614052613fc0565b5b60208301915083602082028301111561406f5761406e613fc5565b5b9250929050565b60008083601f84011261408c5761408b613fbb565b5b8235905067ffffffffffffffff8111156140a9576140a8613fc0565b5b6020830191508360208202830111156140c5576140c4613fc5565b5b9250929050565b60008060008060008060006080888a0312156140eb576140ea613aaa565b5b60006140f98a828b01613ad5565b975050602088013567ffffffffffffffff81111561411a57614119613aaf565b5b6141268a828b01613fca565b9650965050604088013567ffffffffffffffff81111561414957614148613aaf565b5b6141558a828b01614020565b9450945050606088013567ffffffffffffffff81111561417857614177613aaf565b5b6141848a828b01614076565b925092505092959891949750929550565b61419e81613b67565b81146141a957600080fd5b50565b6000813590506141bb81614195565b92915050565b6000806000606084860312156141da576141d9613aaa565b5b60006141e886828701613ad5565b93505060206141f986828701613c30565b925050604061420a868287016141ac565b9150509250925092565b6000806040838503121561422b5761422a613aaa565b5b600061423985828601613c30565b925050602061424a85828601613ad5565b9150509250929050565b60006040820190506142696000830185613b17565b6142766020830184613b17565b9392505050565b600081519050919050565b600082825260208201905092915050565b6000819050602082019050919050565b60006142b58383613cd8565b60208301905092915050565b6000602082019050919050565b60006142d98261427d565b6142e38185614288565b93506142ee83614299565b8060005b8381101561431f57815161430688826142a9565b9750614311836142c1565b9250506001810190506142f2565b5085935050505092915050565b6000602082019050818103600083015261434681846142ce565b905092915050565b60006020820190506143636000830184613b58565b92915050565b7f4e487b7100000000000000000000000000000000000000000000000000000000600052602160045260246000fd5b600581106143a9576143a8614369565b5b50565b60008190506143ba82614398565b919050565b60006143ca826143ac565b9050919050565b6143da816143bf565b82525050565b60006020820190506143f560008301846143d1565b92915050565b600081519050919050565b600082825260208201905092915050565b6000819050602082019050919050565b61443081613b46565b82525050565b60006144428383614427565b60208301905092915050565b6000602082019050919050565b6000614466826143fb565b6144708185614406565b935061447b83614417565b8060005b838110156144ac5781516144938882614436565b975061449e8361444e565b92505060018101905061447f565b5085935050505092915050565b600060208201905081810360008301526144d3818461445b565b905092915050565b600060608201905081810360008301526144f581866142ce565b9050818103602083015261450981856142ce565b9050818103604083015261451d81846142ce565b9050949350505050565b60008083601f84011261453d5761453c613fbb565b5b8235905067ffffffffffffffff81111561455a57614559613fc0565b5b60208301915083606082028301111561457657614575613fc5565b5b9250929050565b60008060008060006080868803121561459957614598613aaa565b5b60006145a788828901613c30565b95505060206145b888828901613c30565b94505060406145c9888289016141ac565b935050606086013567ffffffffffffffff8111156145ea576145e9613aaf565b5b6145f688828901614527565b92509250509295509295909350565b60008083601f84011261461b5761461a613fbb565b5b8235905067ffffffffffffffff81111561463857614637613fc0565b5b60208301915083602082028301111561465457614653613fc5565b5b9250929050565b6000806000806000806060878903121561467857614677613aaa565b5b600087013567ffffffffffffffff81111561469657614695613aaf565b5b6146a289828a01614605565b9650965050602087013567ffffffffffffffff8111156146c5576146c4613aaf565b5b6146d189828a01614605565b9450945050604087013567ffffffffffffffff8111156146f4576146f3613aaf565b5b61470089828a01614605565b92509250509295509295509295565b600082825260208201905092915050565b7f556e617574686f72697a65640000000000000000000000000000000000000000600082015250565b6000614756600c8361470f565b915061476182614720565b602082019050919050565b6000602082019050818103600083015261478581614749565b9050919050565b7f4e487b7100000000000000000000000000000000000000000000000000000000600052601160045260246000fd5b60006147c682613ab4565b91506147d183613ab4565b92508282019050808211156147e9576147e861478c565b5b92915050565b60006040820190506148046000830185613b17565b6148116020830184613b58565b9392505050565b600060408201905061482d6000830185613b58565b61483a6020830184613b58565b9392505050565b7f4e487b7100000000000000000000000000000000000000000000000000000000600052603260045260246000fd5b600080fd5b600080fd5b600080fd5b6000808335600160200384360303811261489c5761489b614870565b5b80840192508235915067ffffffffffffffff8211156148be576148bd614875565b5b6020830192506020820236038313156148da576148d961487a565b5b509250929050565b60006148ed82613ab4565b91506148f883613ab4565b925082820261490681613ab4565b9150828204841483151761491d5761491c61478c565b5b5092915050565b60006060820190506149396000830186613b58565b6149466020830185613b17565b6149536040830184613b17565b949350505050565b600061496682613ab4565b915061497183613ab4565b92508282039050818111156149895761498861478c565b5b92915050565b60006040820190506149a46000830185613b58565b6149b16020830184613b17565b9392505050565b7f4e487b7100000000000000000000000000000000000000000000000000000000600052604160045260246000fd5b60006149f282613ab4565b91507fffffffffffffffffffffffffffffffffffffffffffffffffffffffffffffffff8203614a2457614a2361478c565b5b600182019050919050565b60008135614a3c81613abe565b80915050919050565b60008160001b9050919050565b60007fffffffffffffffffffffffffffffffffffffffffffffffffffffffffffffffff614a7e84614a45565b9350801983169250808416831791505092915050565b6000819050919050565b6000614ab9614ab4614aaf84613ab4565b614a94565b613ab4565b9050919050565b6000819050919050565b614ad382614a9e565b614ae6614adf82614ac0565b8354614a52565b8255505050565b600081016000830180614aff81614a2f565b9050614b0b8184614aca565b505050600181016020830180614b2081614a2f565b9050614b2c8184614aca565b505050600281016040830180614b4181614a2f565b9050614b4d8184614aca565b5050505050565b614b5e8282614aed565b5050565b7f4e487b7100000000000000000000000000000000000000000000000000000000600052603160045260246000fdfea2646970667358221220e4deb289d5e9df7620f057881f9005ba31a113431a5f41540f51e25a1b5e6d7064736f6c634300081c0033",
  "devdoc": {
    "kind": "dev",
    "methods": {
      "orderPrescriptionMultiPharmacy(uint256,address[],uint256[][],bytes32[])": {
        "params": {
          "medIndices": "A 2D array where each sub-array contains indices (in the prescription's medications array) to be ordered from the corresponding pharmacy.",
          "orderHashes": "Array of hashes of order details (off-chain) for each pharmacy order.",
          "pharmacyAddresses": "Array of pharmacy addresses to order from."
        }
      },
      "setInventory(uint256[],uint256[],uint256[])": {
        "params": {
          "drugIds": "- array of drugIds",
          "stocks": "- stock for each drugId"
        }
      }
    },
    "version": 1
  },
  "userdoc": {
    "kind": "user",
    "methods": {
      "acceptPrescription(uint256)": {
        "notice": "to accept a prescription"
      },
      "createPrescription(address,address,bytes32,(uint256,uint256,uint256)[])": {
        "notice": "create Prescription - Not writing param docs fuck you"
      },
      "registerAsDoctor()": {
        "notice": "All are external"
      },
      "setInventory(uint256[],uint256[],uint256[])": {
        "notice": "initialize the stock of the pharmacy for now"
      },
      "updateInventory(uint256,uint256,uint256)": {
        "notice": "update the inventroy of a stock"
      }
    },
    "version": 1
  },
  "storageLayout": {
    "storage": [
      {
        "astId": 6134,
        "contract": "contracts/PrescriptionContract.sol:PrescriptionContract",
        "label": "roles",
        "offset": 0,
        "slot": "0",
        "type": "t_mapping(t_address,t_enum(Role)6129)"
      },
      {
        "astId": 6137,
        "contract": "contracts/PrescriptionContract.sol:PrescriptionContract",
        "label": "pharmacies",
        "offset": 0,
        "slot": "1",
        "type": "t_array(t_address)dyn_storage"
      },
      {
        "astId": 6141,
        "contract": "contracts/PrescriptionContract.sol:PrescriptionContract",
        "label": "isPharmacyRegistered",
        "offset": 0,
        "slot": "2",
        "type": "t_mapping(t_address,t_bool)"
      },
      {
        "astId": 6249,
        "contract": "contracts/PrescriptionContract.sol:PrescriptionContract",
        "label": "prescriptionCounter",
        "offset": 0,
        "slot": "3",
        "type": "t_uint256"
      },
      {
        "astId": 6254,
        "contract": "contracts/PrescriptionContract.sol:PrescriptionContract",
        "label": "prescriptions",
        "offset": 0,
        "slot": "4",
        "type": "t_mapping(t_uint256,t_struct(Prescription)6247_storage)"
      },
      {
        "astId": 6260,
        "contract": "contracts/PrescriptionContract.sol:PrescriptionContract",
        "label": "activeDrug",
        "offset": 0,
        "slot": "5",
        "type": "t_mapping(t_address,t_mapping(t_uint256,t_bool))"
      },
      {
        "astId": 6265,
        "contract": "contracts/PrescriptionContract.sol:PrescriptionContract",
        "label": "patientActiveDrugs",
        "offset": 0,
        "slot": "6",
        "type": "t_mapping(t_address,t_array(t_uint256)dyn_storage)"
      },
      {
        "astId": 6270,
        "contract": "contracts/PrescriptionContract.sol:PrescriptionContract",
        "label": "doctorPatients",
        "offset": 0,
        "slot": "7",
        "type": "t_mapping(t_address,t_array(t_address)dyn_storage)"
      },
      {
        "astId": 6275,
        "contract": "contracts/PrescriptionContract.sol:PrescriptionContract",
        "label": "doctorPrescriptions",
        "offset": 0,
        "slot": "8",
        "type": "t_mapping(t_address,t_array(t_uint256)dyn_storage)"
      },
      {
        "astId": 6280,
        "contract": "contracts/PrescriptionContract.sol:PrescriptionContract",
        "label": "patientPrescriptions",
        "offset": 0,
        "slot": "9",
        "type": "t_mapping(t_address,t_array(t_uint256)dyn_storage)"
      },
      {
        "astId": 6292,
        "contract": "contracts/PrescriptionContract.sol:PrescriptionContract",
        "label": "inventory",
        "offset": 0,
        "slot": "10",
        "type": "t_mapping(t_address,t_mapping(t_uint256,t_struct(InventoryItem)6285_storage))"
      },
      {
        "astId": 6297,
        "contract": "contracts/PrescriptionContract.sol:PrescriptionContract",
        "label": "pharmacyDrugIds",
        "offset": 0,
        "slot": "11",
        "type": "t_mapping(t_address,t_array(t_uint256)dyn_storage)"
      }
    ],
    "types": {
      "t_address": {
        "encoding": "inplace",
        "label": "address",
        "numberOfBytes": "20"
      },
      "t_array(t_address)dyn_storage": {
        "base": "t_address",
        "encoding": "dynamic_array",
        "label": "address[]",
        "numberOfBytes": "32"
      },
      "t_array(t_bool)dyn_storage": {
        "base": "t_bool",
        "encoding": "dynamic_array",
        "label": "bool[]",
        "numberOfBytes": "32"
      },
      "t_array(t_struct(Medication)6223_storage)dyn_storage": {
        "base": "t_struct(Medication)6223_storage",
        "encoding": "dynamic_array",
        "label": "struct PrescriptionContract.Medication[]",
        "numberOfBytes": "32"
      },
      "t_array(t_uint256)dyn_storage": {
        "base": "t_uint256",
        "encoding": "dynamic_array",
        "label": "uint256[]",
        "numberOfBytes": "32"
      },
      "t_bool": {
        "encoding": "inplace",
        "label": "bool",
        "numberOfBytes": "1"
      },
      "t_bytes32": {
        "encoding": "inplace",
        "label": "bytes32",
        "numberOfBytes": "32"
      },
      "t_enum(Role)6129": {
        "encoding": "inplace",
        "label": "enum PrescriptionContract.Role",
        "numberOfBytes": "1"
      },
      "t_mapping(t_address,t_array(t_address)dyn_storage)": {
        "encoding": "mapping",
        "key": "t_address",
        "label": "mapping(address => address[])",
        "numberOfBytes": "32",
        "value": "t_array(t_address)dyn_storage"
      },
      "t_mapping(t_address,t_array(t_uint256)dyn_storage)": {
        "encoding": "mapping",
        "key": "t_address",
        "label": "mapping(address => uint256[])",
        "numberOfBytes": "32",
        "value": "t_array(t_uint256)dyn_storage"
      },
      "t_mapping(t_address,t_bool)": {
        "encoding": "mapping",
        "key": "t_address",
        "label": "mapping(address => bool)",
        "numberOfBytes": "32",
        "value": "t_bool"
      },
      "t_mapping(t_address,t_enum(Role)6129)": {
        "encoding": "mapping",
        "key": "t_address",
        "label": "mapping(address => enum PrescriptionContract.Role)",
        "numberOfBytes": "32",
        "value": "t_enum(Role)6129"
      },
      "t_mapping(t_address,t_mapping(t_uint256,t_bool))": {
        "encoding": "mapping",
        "key": "t_address",
        "label": "mapping(address => mapping(uint256 => bool))",
        "numberOfBytes": "32",
        "value": "t_mapping(t_uint256,t_bool)"
      },
      "t_mapping(t_address,t_mapping(t_uint256,t_struct(InventoryItem)6285_storage))": {
        "encoding": "mapping",
        "key": "t_address",
        "label": "mapping(address => mapping(uint256 => struct PrescriptionContract.InventoryItem))",
        "numberOfBytes": "32",
        "value": "t_mapping(t_uint256,t_struct(InventoryItem)6285_storage)"
      },
      "t_mapping(t_uint256,t_bool)": {
        "encoding": "mapping",
        "key": "t_uint256",
        "label": "mapping(uint256 => bool)",
        "numberOfBytes": "32",
        "value": "t_bool"
      },
      "t_mapping(t_uint256,t_struct(InventoryItem)6285_storage)": {
        "encoding": "mapping",
        "key": "t_uint256",
        "label": "mapping(uint256 => struct PrescriptionContract.InventoryItem)",
        "numberOfBytes": "32",
        "value": "t_struct(InventoryItem)6285_storage"
      },
      "t_mapping(t_uint256,t_struct(Prescription)6247_storage)": {
        "encoding": "mapping",
        "key": "t_uint256",
        "label": "mapping(uint256 => struct PrescriptionContract.Prescription)",
        "numberOfBytes": "32",
        "value": "t_struct(Prescription)6247_storage"
      },
      "t_struct(InventoryItem)6285_storage": {
        "encoding": "inplace",
        "label": "struct PrescriptionContract.InventoryItem",
        "members": [
          {
            "astId": 6282,
            "contract": "contracts/PrescriptionContract.sol:PrescriptionContract",
            "label": "stock",
            "offset": 0,
            "slot": "0",
            "type": "t_uint256"
          },
          {
            "astId": 6284,
            "contract": "contracts/PrescriptionContract.sol:PrescriptionContract",
            "label": "expiration",
            "offset": 0,
            "slot": "1",
            "type": "t_uint256"
          }
        ],
        "numberOfBytes": "64"
      },
      "t_struct(Medication)6223_storage": {
        "encoding": "inplace",
        "label": "struct PrescriptionContract.Medication",
        "members": [
          {
            "astId": 6218,
            "contract": "contracts/PrescriptionContract.sol:PrescriptionContract",
            "label": "drugId",
            "offset": 0,
            "slot": "0",
            "type": "t_uint256"
          },
          {
            "astId": 6220,
            "contract": "contracts/PrescriptionContract.sol:PrescriptionContract",
            "label": "dosage",
            "offset": 0,
            "slot": "1",
            "type": "t_uint256"
          },
          {
            "astId": 6222,
            "contract": "contracts/PrescriptionContract.sol:PrescriptionContract",
            "label": "no_days",
            "offset": 0,
            "slot": "2",
            "type": "t_uint256"
          }
        ],
        "numberOfBytes": "96"
      },
      "t_struct(Prescription)6247_storage": {
        "encoding": "inplace",
        "label": "struct PrescriptionContract.Prescription",
        "members": [
          {
            "astId": 6225,
            "contract": "contracts/PrescriptionContract.sol:PrescriptionContract",
            "label": "id",
            "offset": 0,
            "slot": "0",
            "type": "t_uint256"
          },
          {
            "astId": 6227,
            "contract": "contracts/PrescriptionContract.sol:PrescriptionContract",
            "label": "doctor",
            "offset": 0,
            "slot": "1",
            "type": "t_address"
          },
          {
            "astId": 6229,
            "contract": "contracts/PrescriptionContract.sol:PrescriptionContract",
            "label": "patient",
            "offset": 0,
            "slot": "2",
            "type": "t_address"
          },
          {
            "astId": 6231,
            "contract": "contracts/PrescriptionContract.sol:PrescriptionContract",
            "label": "recommendedPharmacy",
            "offset": 0,
            "slot": "3",
            "type": "t_address"
          },
          {
            "astId": 6233,
            "contract": "contracts/PrescriptionContract.sol:PrescriptionContract",
            "label": "detailsHash",
            "offset": 0,
            "slot": "4",
            "type": "t_bytes32"
          },
          {
            "astId": 6237,
            "contract": "contracts/PrescriptionContract.sol:PrescriptionContract",
            "label": "medications",
            "offset": 0,
            "slot": "5",
            "type": "t_array(t_struct(Medication)6223_storage)dyn_storage"
          },
          {
            "astId": 6240,
            "contract": "contracts/PrescriptionContract.sol:PrescriptionContract",
            "label": "orderedMedications",
            "offset": 0,
            "slot": "6",
            "type": "t_array(t_bool)dyn_storage"
          },
          {
            "astId": 6242,
            "contract": "contracts/PrescriptionContract.sol:PrescriptionContract",
            "label": "timestamp",
            "offset": 0,
            "slot": "7",
            "type": "t_uint256"
          },
          {
            "astId": 6244,
            "contract": "contracts/PrescriptionContract.sol:PrescriptionContract",
            "label": "accepted",
            "offset": 0,
            "slot": "8",
            "type": "t_bool"
          },
          {
            "astId": 6246,
            "contract": "contracts/PrescriptionContract.sol:PrescriptionContract",
            "label": "ordered",
            "offset": 1,
            "slot": "8",
            "type": "t_bool"
          }
        ],
        "numberOfBytes": "288"
      },
      "t_uint256": {
        "encoding": "inplace",
        "label": "uint256",
        "numberOfBytes": "32"
      }
    }
  }
}