{
  "_format": "hh-sol-artifact-1",
  "contractName": "DrugSupplyChain",
  "sourceName": "contracts/SupplyChain.sol",
  "abi": [
    {
      "inputs": [
        {
          "internalType": "address",
          "name": "_prescriptionContract",
          "type": "address"
        }
      ],
      "stateMutability": "nonpayable",
      "type": "constructor"
    },
    {
      "inputs": [
        {
          "internalType": "address",
          "name": "sender",
          "type": "address"
        },
        {
          "internalType": "uint256",
          "name": "balance",
          "type": "uint256"
        },
        {
          "internalType": "uint256",
          "name": "needed",
          "type": "uint256"
        },
        {
          "internalType": "uint256",
          "name": "tokenId",
          "type": "uint256"
        }
      ],
      "name": "ERC1155InsufficientBalance",
      "type": "error"
    },
    {
      "inputs": [
        {
          "internalType": "address",
          "name": "approver",
          "type": "address"
        }
      ],
      "name": "ERC1155InvalidApprover",
      "type": "error"
    },
    {
      "inputs": [
        {
          "internalType": "uint256",
          "name": "idsLength",
          "type": "uint256"
        },
        {
          "internalType": "uint256",
          "name": "valuesLength",
          "type": "uint256"
        }
      ],
      "name": "ERC1155InvalidArrayLength",
      "type": "error"
    },
    {
      "inputs": [
        {
          "internalType": "address",
          "name": "operator",
          "type": "address"
        }
      ],
      "name": "ERC1155InvalidOperator",
      "type": "error"
    },
    {
      "inputs": [
        {
          "internalType": "address",
          "name": "receiver",
          "type": "address"
        }
      ],
      "name": "ERC1155InvalidReceiver",
      "type": "error"
    },
    {
      "inputs": [
        {
          "internalType": "address",
          "name": "sender",
          "type": "address"
        }
      ],
      "name": "ERC1155InvalidSender",
      "type": "error"
    },
    {
      "inputs": [
        {
          "internalType": "address",
          "name": "operator",
          "type": "address"
        },
        {
          "internalType": "address",
          "name": "owner",
          "type": "address"
        }
      ],
      "name": "ERC1155MissingApprovalForAll",
      "type": "error"
    },
    {
      "anonymous": false,
      "inputs": [
        {
          "indexed": true,
          "internalType": "address",
          "name": "account",
          "type": "address"
        },
        {
          "indexed": true,
          "internalType": "address",
          "name": "operator",
          "type": "address"
        },
        {
          "indexed": false,
          "internalType": "bool",
          "name": "approved",
          "type": "bool"
        }
      ],
      "name": "ApprovalForAll",
      "type": "event"
    },
    {
      "anonymous": false,
      "inputs": [
        {
          "indexed": true,
          "internalType": "address",
          "name": "operator",
          "type": "address"
        },
        {
          "indexed": true,
          "internalType": "address",
          "name": "from",
          "type": "address"
        },
        {
          "indexed": true,
          "internalType": "address",
          "name": "to",
          "type": "address"
        },
        {
          "indexed": false,
          "internalType": "uint256[]",
          "name": "ids",
          "type": "uint256[]"
        },
        {
          "indexed": false,
          "internalType": "uint256[]",
          "name": "values",
          "type": "uint256[]"
        }
      ],
      "name": "TransferBatch",
      "type": "event"
    },
    {
      "anonymous": false,
      "inputs": [
        {
          "indexed": true,
          "internalType": "address",
          "name": "operator",
          "type": "address"
        },
        {
          "indexed": true,
          "internalType": "address",
          "name": "from",
          "type": "address"
        },
        {
          "indexed": true,
          "internalType": "address",
          "name": "to",
          "type": "address"
        },
        {
          "indexed": false,
          "internalType": "uint256",
          "name": "id",
          "type": "uint256"
        },
        {
          "indexed": false,
          "internalType": "uint256",
          "name": "value",
          "type": "uint256"
        }
      ],
      "name": "TransferSingle",
      "type": "event"
    },
    {
      "anonymous": false,
      "inputs": [
        {
          "indexed": false,
          "internalType": "string",
          "name": "value",
          "type": "string"
        },
        {
          "indexed": true,
          "internalType": "uint256",
          "name": "id",
          "type": "uint256"
        }
      ],
      "name": "URI",
      "type": "event"
    },
    {
      "inputs": [
        {
          "internalType": "address",
          "name": "account",
          "type": "address"
        },
        {
          "internalType": "uint256",
          "name": "id",
          "type": "uint256"
        }
      ],
      "name": "balanceOf",
      "outputs": [
        {
          "internalType": "uint256",
          "name": "",
          "type": "uint256"
        }
      ],
      "stateMutability": "view",
      "type": "function"
    },
    {
      "inputs": [
        {
          "internalType": "address[]",
          "name": "accounts",
          "type": "address[]"
        },
        {
          "internalType": "uint256[]",
          "name": "ids",
          "type": "uint256[]"
        }
      ],
      "name": "balanceOfBatch",
      "outputs": [
        {
          "internalType": "uint256[]",
          "name": "",
          "type": "uint256[]"
        }
      ],
      "stateMutability": "view",
      "type": "function"
    },
    {
      "inputs": [
        {
          "internalType": "uint256",
          "name": "",
          "type": "uint256"
        }
      ],
      "name": "currentOwner",
      "outputs": [
        {
          "internalType": "address",
          "name": "",
          "type": "address"
        }
      ],
      "stateMutability": "view",
      "type": "function"
    },
    {
      "inputs": [
        {
          "internalType": "uint256",
          "name": "",
          "type": "uint256"
        }
      ],
      "name": "drugMetadata",
      "outputs": [
        {
          "internalType": "uint256",
          "name": "drugId",
          "type": "uint256"
        },
        {
          "internalType": "string",
          "name": "drugName",
          "type": "string"
        },
        {
          "internalType": "uint256",
          "name": "manufacturingDate",
          "type": "uint256"
        },
        {
          "internalType": "address",
          "name": "manufacturer",
          "type": "address"
        },
        {
          "internalType": "uint256",
          "name": "expirationDate",
          "type": "uint256"
        },
        {
          "internalType": "uint256",
          "name": "mrp",
          "type": "uint256"
        }
      ],
      "stateMutability": "view",
      "type": "function"
    },
    {
      "inputs": [
        {
          "internalType": "uint256",
          "name": "tokenId",
          "type": "uint256"
        }
      ],
      "name": "getOwnershipHistory",
      "outputs": [
        {
          "components": [
            {
              "internalType": "address",
              "name": "from",
              "type": "address"
            },
            {
              "internalType": "address",
              "name": "to",
              "type": "address"
            },
            {
              "internalType": "uint256",
              "name": "amount",
              "type": "uint256"
            },
            {
              "internalType": "uint256",
              "name": "timestamp",
              "type": "uint256"
            }
          ],
          "internalType": "struct DrugSupplyChain.TransferHistory[]",
          "name": "",
          "type": "tuple[]"
        }
      ],
      "stateMutability": "view",
      "type": "function"
    },
    {
      "inputs": [
        {
          "internalType": "address",
          "name": "account",
          "type": "address"
        },
        {
          "internalType": "address",
          "name": "operator",
          "type": "address"
        }
      ],
      "name": "isApprovedForAll",
      "outputs": [
        {
          "internalType": "bool",
          "name": "",
          "type": "bool"
        }
      ],
      "stateMutability": "view",
      "type": "function"
    },
    {
      "inputs": [
        {
          "internalType": "address",
          "name": "to",
          "type": "address"
        },
        {
          "internalType": "uint256",
          "name": "drugId",
          "type": "uint256"
        },
        {
          "internalType": "string",
          "name": "drugName",
          "type": "string"
        },
        {
          "internalType": "uint256",
          "name": "manufacturingDate",
          "type": "uint256"
        },
        {
          "internalType": "uint256",
          "name": "expirationDate",
          "type": "uint256"
        },
        {
          "internalType": "uint256",
          "name": "mrp",
          "type": "uint256"
        },
        {
          "internalType": "uint256",
          "name": "amount",
          "type": "uint256"
        }
      ],
      "name": "mintBatch",
      "outputs": [],
      "stateMutability": "nonpayable",
      "type": "function"
    },
    {
      "inputs": [
        {
          "internalType": "uint256",
          "name": "",
          "type": "uint256"
        },
        {
          "internalType": "uint256",
          "name": "",
          "type": "uint256"
        }
      ],
      "name": "ownershipHistory",
      "outputs": [
        {
          "internalType": "address",
          "name": "from",
          "type": "address"
        },
        {
          "internalType": "address",
          "name": "to",
          "type": "address"
        },
        {
          "internalType": "uint256",
          "name": "amount",
          "type": "uint256"
        },
        {
          "internalType": "uint256",
          "name": "timestamp",
          "type": "uint256"
        }
      ],
      "stateMutability": "view",
      "type": "function"
    },
    {
      "inputs": [
        {
          "internalType": "address",
          "name": "from",
          "type": "address"
        },
        {
          "internalType": "address",
          "name": "to",
          "type": "address"
        },
        {
          "internalType": "uint256[]",
          "name": "ids",
          "type": "uint256[]"
        },
        {
          "internalType": "uint256[]",
          "name": "values",
          "type": "uint256[]"
        },
        {
          "internalType": "bytes",
          "name": "data",
          "type": "bytes"
        }
      ],
      "name": "safeBatchTransferFrom",
      "outputs": [],
      "stateMutability": "nonpayable",
      "type": "function"
    },
    {
      "inputs": [
        {
          "internalType": "address",
          "name": "from",
          "type": "address"
        },
        {
          "internalType": "address",
          "name": "to",
          "type": "address"
        },
        {
          "internalType": "uint256",
          "name": "id",
          "type": "uint256"
        },
        {
          "internalType": "uint256",
          "name": "value",
          "type": "uint256"
        },
        {
          "internalType": "bytes",
          "name": "data",
          "type": "bytes"
        }
      ],
      "name": "safeTransferFrom",
      "outputs": [],
      "stateMutability": "nonpayable",
      "type": "function"
    },
    {
      "inputs": [
        {
          "internalType": "address",
          "name": "operator",
          "type": "address"
        },
        {
          "internalType": "bool",
          "name": "approved",
          "type": "bool"
        }
      ],
      "name": "setApprovalForAll",
      "outputs": [],
      "stateMutability": "nonpayable",
      "type": "function"
    },
    {
      "inputs": [
        {
          "internalType": "bytes4",
          "name": "interfaceId",
          "type": "bytes4"
        }
      ],
      "name": "supportsInterface",
      "outputs": [
        {
          "internalType": "bool",
          "name": "",
          "type": "bool"
        }
      ],
      "stateMutability": "view",
      "type": "function"
    },
    {
      "inputs": [],
      "name": "tokenCounter",
      "outputs": [
        {
          "internalType": "uint256",
          "name": "",
          "type": "uint256"
        }
      ],
      "stateMutability": "view",
      "type": "function"
    },
    {
      "inputs": [
        {
          "internalType": "uint256",
          "name": "",
          "type": "uint256"
        }
      ],
      "name": "uri",
      "outputs": [
        {
          "internalType": "string",
          "name": "",
          "type": "string"
        }
      ],
      "stateMutability": "view",
      "type": "function"
    }
  ],
  "bytecode": "0x608060405234801561001057600080fd5b506040516136e03803806136e08339818101604052810190610032919061010f565b604051806020016040528060008152506100518161009960201b60201c565b5080600360006101000a81548173ffffffffffffffffffffffffffffffffffffffff021916908373ffffffffffffffffffffffffffffffffffffffff1602179055505061045e565b80600290816100a8919061038c565b5050565b600080fd5b600073ffffffffffffffffffffffffffffffffffffffff82169050919050565b60006100dc826100b1565b9050919050565b6100ec816100d1565b81146100f757600080fd5b50565b600081519050610109816100e3565b92915050565b600060208284031215610125576101246100ac565b5b6000610133848285016100fa565b91505092915050565b600081519050919050565b7f4e487b7100000000000000000000000000000000000000000000000000000000600052604160045260246000fd5b7f4e487b7100000000000000000000000000000000000000000000000000000000600052602260045260246000fd5b600060028204905060018216806101bd57607f821691505b6020821081036101d0576101cf610176565b5b50919050565b60008190508160005260206000209050919050565b60006020601f8301049050919050565b600082821b905092915050565b6000600883026102387fffffffffffffffffffffffffffffffffffffffffffffffffffffffffffffffff826101fb565b61024286836101fb565b95508019841693508086168417925050509392505050565b6000819050919050565b6000819050919050565b600061028961028461027f8461025a565b610264565b61025a565b9050919050565b6000819050919050565b6102a38361026e565b6102b76102af82610290565b848454610208565b825550505050565b600090565b6102cc6102bf565b6102d781848461029a565b505050565b5b818110156102fb576102f06000826102c4565b6001810190506102dd565b5050565b601f82111561034057610311816101d6565b61031a846101eb565b81016020851015610329578190505b61033d610335856101eb565b8301826102dc565b50505b505050565b600082821c905092915050565b600061036360001984600802610345565b1980831691505092915050565b600061037c8383610352565b9150826002028217905092915050565b6103958261013c565b67ffffffffffffffff8111156103ae576103ad610147565b5b6103b882546101a5565b6103c38282856102ff565b600060209050601f8311600181146103f657600084156103e4578287015190505b6103ee8582610370565b865550610456565b601f198416610404866101d6565b60005b8281101561042c57848901518255600182019150602085019450602081019050610407565b868310156104495784890151610445601f891682610352565b8355505b6001600288020188555050505b505050505050565b6132738061046d6000396000f3fe608060405234801561001057600080fd5b50600436106100e95760003560e01c8063a22cb4651161008c578063e545110311610066578063e545110314610288578063e985e9c5146102b8578063f1dbaccb146102e8578063f242432a14610318576100e9565b8063a22cb4651461021b578063c9cf2adc14610237578063d082e3811461026a576100e9565b80630e89341c116100c85780630e89341c146101835780632eb2c2d6146101b35780634e1273f4146101cf5780635ebe747a146101ff576100e9565b8062fdd58e146100ee57806301ffc9a71461011e57806303dbf0931461014e575b600080fd5b61010860048036038101906101039190611f98565b610334565b6040516101159190611fe7565b60405180910390f35b6101386004803603810190610133919061205a565b61038e565b60405161014591906120a2565b60405180910390f35b610168600480360381019061016391906120bd565b610470565b60405161017a96959493929190612189565b60405180910390f35b61019d600480360381019061019891906120bd565b610554565b6040516101aa91906121f1565b60405180910390f35b6101cd60048036038101906101c89190612410565b6105e8565b005b6101e960048036038101906101e491906125a2565b610690565b6040516101f691906126d8565b60405180910390f35b6102196004803603810190610214919061279b565b610799565b005b61023560048036038101906102309190612885565b6109c7565b005b610251600480360381019061024c91906128c5565b6109dd565b6040516102619493929190612905565b60405180910390f35b610272610a6a565b60405161027f9190611fe7565b60405180910390f35b6102a2600480360381019061029d91906120bd565b610a70565b6040516102af919061294a565b60405180910390f35b6102d260048036038101906102cd9190612965565b610aa3565b6040516102df91906120a2565b60405180910390f35b61030260048036038101906102fd91906120bd565b610b37565b60405161030f9190612ab8565b60405180910390f35b610332600480360381019061032d9190612ada565b610c69565b005b600080600083815260200190815260200160002060008473ffffffffffffffffffffffffffffffffffffffff1673ffffffffffffffffffffffffffffffffffffffff16815260200190815260200160002054905092915050565b60007fd9b67a26000000000000000000000000000000000000000000000000000000007bffffffffffffffffffffffffffffffffffffffffffffffffffffffff1916827bffffffffffffffffffffffffffffffffffffffffffffffffffffffff1916148061045957507f0e89341c000000000000000000000000000000000000000000000000000000007bffffffffffffffffffffffffffffffffffffffffffffffffffffffff1916827bffffffffffffffffffffffffffffffffffffffffffffffffffffffff1916145b80610469575061046882610d11565b5b9050919050565b600460205280600052604060002060009150905080600001549080600101805461049990612ba0565b80601f01602080910402602001604051908101604052809291908181526020018280546104c590612ba0565b80156105125780601f106104e757610100808354040283529160200191610512565b820191906000526020600020905b8154815290600101906020018083116104f557829003601f168201915b5050505050908060020154908060030160009054906101000a900473ffffffffffffffffffffffffffffffffffffffff16908060040154908060050154905086565b60606002805461056390612ba0565b80601f016020809104026020016040519081016040528092919081815260200182805461058f90612ba0565b80156105dc5780601f106105b1576101008083540402835291602001916105dc565b820191906000526020600020905b8154815290600101906020018083116105bf57829003601f168201915b50505050509050919050565b60006105f2610d7b565b90508073ffffffffffffffffffffffffffffffffffffffff168673ffffffffffffffffffffffffffffffffffffffff161415801561063757506106358682610aa3565b155b1561067b5780866040517fe237d922000000000000000000000000000000000000000000000000000000008152600401610672929190612bd1565b60405180910390fd5b6106888686868686610d83565b505050505050565b606081518351146106dc57815183516040517f5b0599910000000000000000000000000000000000000000000000000000000081526004016106d3929190612bfa565b60405180910390fd5b6000835167ffffffffffffffff8111156106f9576106f8612218565b5b6040519080825280602002602001820160405280156107275781602001602082028036833780820191505090505b50905060005b845181101561078e5761076461074c8287610e7b90919063ffffffff16565b61075f8387610e8f90919063ffffffff16565b610334565b82828151811061077757610776612c23565b5b60200260200101818152505080600101905061072d565b508091505092915050565b6004808111156107ac576107ab612c52565b5b600360009054906101000a900473ffffffffffffffffffffffffffffffffffffffff1673ffffffffffffffffffffffffffffffffffffffff166399374642336040518263ffffffff1660e01b8152600401610807919061294a565b602060405180830381865afa158015610824573d6000803e3d6000fd5b505050506040513d601f19601f820116820180604052508101906108489190612ca6565b600481111561085a57610859612c52565b5b1461089a576040517f08c379a000000000000000000000000000000000000000000000000000000000815260040161089190612d1f565b60405180910390fd5b600760008154809291906108ad90612d6e565b91905055506040518060c001604052808781526020018681526020018581526020013373ffffffffffffffffffffffffffffffffffffffff168152602001848152602001838152506004600060075481526020019081526020016000206000820151816000015560208201518160010190816109299190612f62565b506040820151816002015560608201518160030160006101000a81548173ffffffffffffffffffffffffffffffffffffffff021916908373ffffffffffffffffffffffffffffffffffffffff1602179055506080820151816004015560a082015181600501559050506109af876007548360405180602001604052806000815250610ea3565b6109be60075460008984610f3c565b50505050505050565b6109d96109d2610d7b565b83836110c1565b5050565b600560205281600052604060002081815481106109f957600080fd5b9060005260206000209060040201600091509150508060000160009054906101000a900473ffffffffffffffffffffffffffffffffffffffff16908060010160009054906101000a900473ffffffffffffffffffffffffffffffffffffffff16908060020154908060030154905084565b60075481565b60066020528060005260406000206000915054906101000a900473ffffffffffffffffffffffffffffffffffffffff1681565b6000600160008473ffffffffffffffffffffffffffffffffffffffff1673ffffffffffffffffffffffffffffffffffffffff16815260200190815260200160002060008373ffffffffffffffffffffffffffffffffffffffff1673ffffffffffffffffffffffffffffffffffffffff16815260200190815260200160002060009054906101000a900460ff16905092915050565b606060056000838152602001908152602001600020805480602002602001604051908101604052809291908181526020016000905b82821015610c5e57838290600052602060002090600402016040518060800160405290816000820160009054906101000a900473ffffffffffffffffffffffffffffffffffffffff1673ffffffffffffffffffffffffffffffffffffffff1673ffffffffffffffffffffffffffffffffffffffff1681526020016001820160009054906101000a900473ffffffffffffffffffffffffffffffffffffffff1673ffffffffffffffffffffffffffffffffffffffff1673ffffffffffffffffffffffffffffffffffffffff1681526020016002820154815260200160038201548152505081526020019060010190610b6c565b505050509050919050565b6000610c73610d7b565b90508073ffffffffffffffffffffffffffffffffffffffff168673ffffffffffffffffffffffffffffffffffffffff1614158015610cb85750610cb68682610aa3565b155b15610cfc5780866040517fe237d922000000000000000000000000000000000000000000000000000000008152600401610cf3929190612bd1565b60405180910390fd5b610d098686868686611231565b505050505050565b60007f01ffc9a7000000000000000000000000000000000000000000000000000000007bffffffffffffffffffffffffffffffffffffffffffffffffffffffff1916827bffffffffffffffffffffffffffffffffffffffffffffffffffffffff1916149050919050565b600033905090565b600073ffffffffffffffffffffffffffffffffffffffff168473ffffffffffffffffffffffffffffffffffffffff1603610df55760006040517f57f447ce000000000000000000000000000000000000000000000000000000008152600401610dec919061294a565b60405180910390fd5b600073ffffffffffffffffffffffffffffffffffffffff168573ffffffffffffffffffffffffffffffffffffffff1603610e675760006040517f01a83514000000000000000000000000000000000000000000000000000000008152600401610e5e919061294a565b60405180910390fd5b610e74858585858561133c565b5050505050565b600060208202602084010151905092915050565b600060208202602084010151905092915050565b600073ffffffffffffffffffffffffffffffffffffffff168473ffffffffffffffffffffffffffffffffffffffff1603610f155760006040517f57f447ce000000000000000000000000000000000000000000000000000000008152600401610f0c919061294a565b60405180910390fd5b600080610f228585611657565b91509150610f3460008784848761133c565b505050505050565b6005600085815260200190815260200160002060405180608001604052808573ffffffffffffffffffffffffffffffffffffffff1681526020018473ffffffffffffffffffffffffffffffffffffffff16815260200183815260200142815250908060018154018082558091505060019003906000526020600020906004020160009091909190915060008201518160000160006101000a81548173ffffffffffffffffffffffffffffffffffffffff021916908373ffffffffffffffffffffffffffffffffffffffff16021790555060208201518160010160006101000a81548173ffffffffffffffffffffffffffffffffffffffff021916908373ffffffffffffffffffffffffffffffffffffffff16021790555060408201518160020155606082015181600301555050816006600086815260200190815260200160002060006101000a81548173ffffffffffffffffffffffffffffffffffffffff021916908373ffffffffffffffffffffffffffffffffffffffff16021790555050505050565b600073ffffffffffffffffffffffffffffffffffffffff168273ffffffffffffffffffffffffffffffffffffffff16036111335760006040517fced3e10000000000000000000000000000000000000000000000000000000000815260040161112a919061294a565b60405180910390fd5b80600160008573ffffffffffffffffffffffffffffffffffffffff1673ffffffffffffffffffffffffffffffffffffffff16815260200190815260200160002060008473ffffffffffffffffffffffffffffffffffffffff1673ffffffffffffffffffffffffffffffffffffffff16815260200190815260200160002060006101000a81548160ff0219169083151502179055508173ffffffffffffffffffffffffffffffffffffffff168373ffffffffffffffffffffffffffffffffffffffff167f17307eab39ab6107e8899845ad3d59bd9653f200f220920489ca2b5937696c318360405161122491906120a2565b60405180910390a3505050565b600073ffffffffffffffffffffffffffffffffffffffff168473ffffffffffffffffffffffffffffffffffffffff16036112a35760006040517f57f447ce00000000000000000000000000000000000000000000000000000000815260040161129a919061294a565b60405180910390fd5b600073ffffffffffffffffffffffffffffffffffffffff168573ffffffffffffffffffffffffffffffffffffffff16036113155760006040517f01a8351400000000000000000000000000000000000000000000000000000000815260040161130c919061294a565b60405180910390fd5b6000806113228585611657565b91509150611333878784848761133c565b50505050505050565b6113498585858585611687565b60005b835181101561164f57600084828151811061136a57611369612c23565b5b60200260200101519050600084838151811061138957611388612c23565b5b6020026020010151905061139f82898984610f3c565b600360048111156113b3576113b2612c52565b5b600360009054906101000a900473ffffffffffffffffffffffffffffffffffffffff1673ffffffffffffffffffffffffffffffffffffffff166399374642896040518263ffffffff1660e01b815260040161140e919061294a565b602060405180830381865afa15801561142b573d6000803e3d6000fd5b505050506040513d601f19601f8201168201806040525081019061144f9190612ca6565b600481111561146157611460612c52565b5b0361164057611471878383611739565b6000600460008481526020019081526020016000206040518060c0016040529081600082015481526020016001820180546114ab90612ba0565b80601f01602080910402602001604051908101604052809291908181526020018280546114d790612ba0565b80156115245780601f106114f957610100808354040283529160200191611524565b820191906000526020600020905b81548152906001019060200180831161150757829003601f168201915b50505050508152602001600282015481526020016003820160009054906101000a900473ffffffffffffffffffffffffffffffffffffffff1673ffffffffffffffffffffffffffffffffffffffff1673ffffffffffffffffffffffffffffffffffffffff168152602001600482015481526020016005820154815250509050600360009054906101000a900473ffffffffffffffffffffffffffffffffffffffff1673ffffffffffffffffffffffffffffffffffffffff166336cd61148983600001518585608001516040518563ffffffff1660e01b815260040161160c9493929190613034565b600060405180830381600087803b15801561162657600080fd5b505af115801561163a573d6000803e3d6000fd5b50505050505b5050808060010191505061134c565b505050505050565b60608060405191506001825283602083015260408201905060018152826020820152604081016040529250929050565b611693858585856117e0565b600073ffffffffffffffffffffffffffffffffffffffff168473ffffffffffffffffffffffffffffffffffffffff16146117325760006116d1610d7b565b905060018451036117215760006116f2600086610e8f90919063ffffffff16565b9050600061170a600086610e8f90919063ffffffff16565b905061171a838989858589611b88565b5050611730565b61172f818787878787611d3c565b5b505b5050505050565b600073ffffffffffffffffffffffffffffffffffffffff168373ffffffffffffffffffffffffffffffffffffffff16036117ab5760006040517f01a835140000000000000000000000000000000000000000000000000000000081526004016117a2919061294a565b60405180910390fd5b6000806117b88484611657565b915091506117d985600084846040518060200160405280600081525061133c565b5050505050565b805182511461182a57815181516040517f5b059991000000000000000000000000000000000000000000000000000000008152600401611821929190612bfa565b60405180910390fd5b6000611834610d7b565b905060005b8351811015611a435760006118578286610e8f90919063ffffffff16565b9050600061186e8386610e8f90919063ffffffff16565b9050600073ffffffffffffffffffffffffffffffffffffffff168873ffffffffffffffffffffffffffffffffffffffff161461199b57600080600084815260200190815260200160002060008a73ffffffffffffffffffffffffffffffffffffffff1673ffffffffffffffffffffffffffffffffffffffff1681526020019081526020016000205490508181101561194357888183856040517f03dee4c500000000000000000000000000000000000000000000000000000000815260040161193a9493929190613034565b60405180910390fd5b81810360008085815260200190815260200160002060008b73ffffffffffffffffffffffffffffffffffffffff1673ffffffffffffffffffffffffffffffffffffffff16815260200190815260200160002081905550505b600073ffffffffffffffffffffffffffffffffffffffff168773ffffffffffffffffffffffffffffffffffffffff1614611a36578060008084815260200190815260200160002060008973ffffffffffffffffffffffffffffffffffffffff1673ffffffffffffffffffffffffffffffffffffffff1681526020019081526020016000206000828254611a2e9190613079565b925050819055505b5050806001019050611839565b506001835103611b02576000611a63600085610e8f90919063ffffffff16565b90506000611a7b600085610e8f90919063ffffffff16565b90508573ffffffffffffffffffffffffffffffffffffffff168773ffffffffffffffffffffffffffffffffffffffff168473ffffffffffffffffffffffffffffffffffffffff167fc3d58168c5ae7397731d063d5bbf3d657854427343f4c083240f7aacaa2d0f628585604051611af3929190612bfa565b60405180910390a45050611b81565b8373ffffffffffffffffffffffffffffffffffffffff168573ffffffffffffffffffffffffffffffffffffffff168273ffffffffffffffffffffffffffffffffffffffff167f4a39dc06d4c0dbc64b70af90fd698a233a518aa5d07e595d983b8c0526c8f7fb8686604051611b789291906130ad565b60405180910390a45b5050505050565b60008473ffffffffffffffffffffffffffffffffffffffff163b1115611d34578373ffffffffffffffffffffffffffffffffffffffff1663f23a6e6187878686866040518663ffffffff1660e01b8152600401611be9959493929190613139565b6020604051808303816000875af1925050508015611c2557506040513d601f19601f82011682018060405250810190611c2291906131a8565b60015b611ca9573d8060008114611c55576040519150601f19603f3d011682016040523d82523d6000602084013e611c5a565b606091505b506000815103611ca157846040517f57f447ce000000000000000000000000000000000000000000000000000000008152600401611c98919061294a565b60405180910390fd5b805181602001fd5b63f23a6e6160e01b7bffffffffffffffffffffffffffffffffffffffffffffffffffffffff1916817bffffffffffffffffffffffffffffffffffffffffffffffffffffffff191614611d3257846040517f57f447ce000000000000000000000000000000000000000000000000000000008152600401611d29919061294a565b60405180910390fd5b505b505050505050565b60008473ffffffffffffffffffffffffffffffffffffffff163b1115611ee8578373ffffffffffffffffffffffffffffffffffffffff1663bc197c8187878686866040518663ffffffff1660e01b8152600401611d9d9594939291906131d5565b6020604051808303816000875af1925050508015611dd957506040513d601f19601f82011682018060405250810190611dd691906131a8565b60015b611e5d573d8060008114611e09576040519150601f19603f3d011682016040523d82523d6000602084013e611e0e565b606091505b506000815103611e5557846040517f57f447ce000000000000000000000000000000000000000000000000000000008152600401611e4c919061294a565b60405180910390fd5b805181602001fd5b63bc197c8160e01b7bffffffffffffffffffffffffffffffffffffffffffffffffffffffff1916817bffffffffffffffffffffffffffffffffffffffffffffffffffffffff191614611ee657846040517f57f447ce000000000000000000000000000000000000000000000000000000008152600401611edd919061294a565b60405180910390fd5b505b505050505050565b6000604051905090565b600080fd5b600080fd5b600073ffffffffffffffffffffffffffffffffffffffff82169050919050565b6000611f2f82611f04565b9050919050565b611f3f81611f24565b8114611f4a57600080fd5b50565b600081359050611f5c81611f36565b92915050565b6000819050919050565b611f7581611f62565b8114611f8057600080fd5b50565b600081359050611f9281611f6c565b92915050565b60008060408385031215611faf57611fae611efa565b5b6000611fbd85828601611f4d565b9250506020611fce85828601611f83565b9150509250929050565b611fe181611f62565b82525050565b6000602082019050611ffc6000830184611fd8565b92915050565b60007fffffffff0000000000000000000000000000000000000000000000000000000082169050919050565b61203781612002565b811461204257600080fd5b50565b6000813590506120548161202e565b92915050565b6000602082840312156120705761206f611efa565b5b600061207e84828501612045565b91505092915050565b60008115159050919050565b61209c81612087565b82525050565b60006020820190506120b76000830184612093565b92915050565b6000602082840312156120d3576120d2611efa565b5b60006120e184828501611f83565b91505092915050565b600081519050919050565b600082825260208201905092915050565b60005b83811015612124578082015181840152602081019050612109565b60008484015250505050565b6000601f19601f8301169050919050565b600061214c826120ea565b61215681856120f5565b9350612166818560208601612106565b61216f81612130565b840191505092915050565b61218381611f24565b82525050565b600060c08201905061219e6000830189611fd8565b81810360208301526121b08188612141565b90506121bf6040830187611fd8565b6121cc606083018661217a565b6121d96080830185611fd8565b6121e660a0830184611fd8565b979650505050505050565b6000602082019050818103600083015261220b8184612141565b905092915050565b600080fd5b7f4e487b7100000000000000000000000000000000000000000000000000000000600052604160045260246000fd5b61225082612130565b810181811067ffffffffffffffff8211171561226f5761226e612218565b5b80604052505050565b6000612282611ef0565b905061228e8282612247565b919050565b600067ffffffffffffffff8211156122ae576122ad612218565b5b602082029050602081019050919050565b600080fd5b60006122d76122d284612293565b612278565b905080838252602082019050602084028301858111156122fa576122f96122bf565b5b835b81811015612323578061230f8882611f83565b8452602084019350506020810190506122fc565b5050509392505050565b600082601f83011261234257612341612213565b5b81356123528482602086016122c4565b91505092915050565b600080fd5b600067ffffffffffffffff82111561237b5761237a612218565b5b61238482612130565b9050602081019050919050565b82818337600083830152505050565b60006123b36123ae84612360565b612278565b9050828152602081018484840111156123cf576123ce61235b565b5b6123da848285612391565b509392505050565b600082601f8301126123f7576123f6612213565b5b81356124078482602086016123a0565b91505092915050565b600080600080600060a0868803121561242c5761242b611efa565b5b600061243a88828901611f4d565b955050602061244b88828901611f4d565b945050604086013567ffffffffffffffff81111561246c5761246b611eff565b5b6124788882890161232d565b935050606086013567ffffffffffffffff81111561249957612498611eff565b5b6124a58882890161232d565b925050608086013567ffffffffffffffff8111156124c6576124c5611eff565b5b6124d2888289016123e2565b9150509295509295909350565b600067ffffffffffffffff8211156124fa576124f9612218565b5b602082029050602081019050919050565b600061251e612519846124df565b612278565b90508083825260208201905060208402830185811115612541576125406122bf565b5b835b8181101561256a57806125568882611f4d565b845260208401935050602081019050612543565b5050509392505050565b600082601f83011261258957612588612213565b5b813561259984826020860161250b565b91505092915050565b600080604083850312156125b9576125b8611efa565b5b600083013567ffffffffffffffff8111156125d7576125d6611eff565b5b6125e385828601612574565b925050602083013567ffffffffffffffff81111561260457612603611eff565b5b6126108582860161232d565b9150509250929050565b600081519050919050565b600082825260208201905092915050565b6000819050602082019050919050565b61264f81611f62565b82525050565b60006126618383612646565b60208301905092915050565b6000602082019050919050565b60006126858261261a565b61268f8185612625565b935061269a83612636565b8060005b838110156126cb5781516126b28882612655565b97506126bd8361266d565b92505060018101905061269e565b5085935050505092915050565b600060208201905081810360008301526126f2818461267a565b905092915050565b600067ffffffffffffffff82111561271557612714612218565b5b61271e82612130565b9050602081019050919050565b600061273e612739846126fa565b612278565b90508281526020810184848401111561275a5761275961235b565b5b612765848285612391565b509392505050565b600082601f83011261278257612781612213565b5b813561279284826020860161272b565b91505092915050565b600080600080600080600060e0888a0312156127ba576127b9611efa565b5b60006127c88a828b01611f4d565b97505060206127d98a828b01611f83565b965050604088013567ffffffffffffffff8111156127fa576127f9611eff565b5b6128068a828b0161276d565b95505060606128178a828b01611f83565b94505060806128288a828b01611f83565b93505060a06128398a828b01611f83565b92505060c061284a8a828b01611f83565b91505092959891949750929550565b61286281612087565b811461286d57600080fd5b50565b60008135905061287f81612859565b92915050565b6000806040838503121561289c5761289b611efa565b5b60006128aa85828601611f4d565b92505060206128bb85828601612870565b9150509250929050565b600080604083850312156128dc576128db611efa565b5b60006128ea85828601611f83565b92505060206128fb85828601611f83565b9150509250929050565b600060808201905061291a600083018761217a565b612927602083018661217a565b6129346040830185611fd8565b6129416060830184611fd8565b95945050505050565b600060208201905061295f600083018461217a565b92915050565b6000806040838503121561297c5761297b611efa565b5b600061298a85828601611f4d565b925050602061299b85828601611f4d565b9150509250929050565b600081519050919050565b600082825260208201905092915050565b6000819050602082019050919050565b6129da81611f24565b82525050565b6080820160008201516129f660008501826129d1565b506020820151612a0960208501826129d1565b506040820151612a1c6040850182612646565b506060820151612a2f6060850182612646565b50505050565b6000612a4183836129e0565b60808301905092915050565b6000602082019050919050565b6000612a65826129a5565b612a6f81856129b0565b9350612a7a836129c1565b8060005b83811015612aab578151612a928882612a35565b9750612a9d83612a4d565b925050600181019050612a7e565b5085935050505092915050565b60006020820190508181036000830152612ad28184612a5a565b905092915050565b600080600080600060a08688031215612af657612af5611efa565b5b6000612b0488828901611f4d565b9550506020612b1588828901611f4d565b9450506040612b2688828901611f83565b9350506060612b3788828901611f83565b925050608086013567ffffffffffffffff811115612b5857612b57611eff565b5b612b64888289016123e2565b9150509295509295909350565b7f4e487b7100000000000000000000000000000000000000000000000000000000600052602260045260246000fd5b60006002820490506001821680612bb857607f821691505b602082108103612bcb57612bca612b71565b5b50919050565b6000604082019050612be6600083018561217a565b612bf3602083018461217a565b9392505050565b6000604082019050612c0f6000830185611fd8565b612c1c6020830184611fd8565b9392505050565b7f4e487b7100000000000000000000000000000000000000000000000000000000600052603260045260246000fd5b7f4e487b7100000000000000000000000000000000000000000000000000000000600052602160045260246000fd5b60058110612c8e57600080fd5b50565b600081519050612ca081612c81565b92915050565b600060208284031215612cbc57612cbb611efa565b5b6000612cca84828501612c91565b91505092915050565b7f4e6f74206120706861726d61636575746963616c20636f6d70616e7900000000600082015250565b6000612d09601c836120f5565b9150612d1482612cd3565b602082019050919050565b60006020820190508181036000830152612d3881612cfc565b9050919050565b7f4e487b7100000000000000000000000000000000000000000000000000000000600052601160045260246000fd5b6000612d7982611f62565b91507fffffffffffffffffffffffffffffffffffffffffffffffffffffffffffffffff8203612dab57612daa612d3f565b5b600182019050919050565b60008190508160005260206000209050919050565b60006020601f8301049050919050565b600082821b905092915050565b600060088302612e187fffffffffffffffffffffffffffffffffffffffffffffffffffffffffffffffff82612ddb565b612e228683612ddb565b95508019841693508086168417925050509392505050565b6000819050919050565b6000612e5f612e5a612e5584611f62565b612e3a565b611f62565b9050919050565b6000819050919050565b612e7983612e44565b612e8d612e8582612e66565b848454612de8565b825550505050565b600090565b612ea2612e95565b612ead818484612e70565b505050565b5b81811015612ed157612ec6600082612e9a565b600181019050612eb3565b5050565b601f821115612f1657612ee781612db6565b612ef084612dcb565b81016020851015612eff578190505b612f13612f0b85612dcb565b830182612eb2565b50505b505050565b600082821c905092915050565b6000612f3960001984600802612f1b565b1980831691505092915050565b6000612f528383612f28565b9150826002028217905092915050565b612f6b826120ea565b67ffffffffffffffff811115612f8457612f83612218565b5b612f8e8254612ba0565b612f99828285612ed5565b600060209050601f831160018114612fcc5760008415612fba578287015190505b612fc48582612f46565b86555061302c565b601f198416612fda86612db6565b60005b8281101561300257848901518255600182019150602085019450602081019050612fdd565b8683101561301f578489015161301b601f891682612f28565b8355505b6001600288020188555050505b505050505050565b6000608082019050613049600083018761217a565b6130566020830186611fd8565b6130636040830185611fd8565b6130706060830184611fd8565b95945050505050565b600061308482611f62565b915061308f83611f62565b92508282019050808211156130a7576130a6612d3f565b5b92915050565b600060408201905081810360008301526130c7818561267a565b905081810360208301526130db818461267a565b90509392505050565b600081519050919050565b600082825260208201905092915050565b600061310b826130e4565b61311581856130ef565b9350613125818560208601612106565b61312e81612130565b840191505092915050565b600060a08201905061314e600083018861217a565b61315b602083018761217a565b6131686040830186611fd8565b6131756060830185611fd8565b81810360808301526131878184613100565b90509695505050505050565b6000815190506131a28161202e565b92915050565b6000602082840312156131be576131bd611efa565b5b60006131cc84828501613193565b91505092915050565b600060a0820190506131ea600083018861217a565b6131f7602083018761217a565b8181036040830152613209818661267a565b9050818103606083015261321d818561267a565b905081810360808301526132318184613100565b9050969550505050505056fea26469706673582212206ecc9cb5deeae4179486931f439ddc5005baa24c8a2d6f31f0eb7c7284aad09b64736f6c634300081c0033",
  "linkReferences": {},
  "deployedLinkReferences": {}
}